###############################################################################
#
# IAR ELF Linker V8.32.2.178/W32 for ARM                  07/Jan/2019  09:55:57
# Copyright 2007-2018 IAR Systems AB.
#
#    Output file  =  
#        D:\ESSEK_WORKSPACES\evb_emb\harborxsmarcard\apollo3evb\iar\bin\card_applic.out
#    Map file     =  
#        D:\ESSEK_WORKSPACES\evb_emb\harborxsmarcard\apollo3evb\iar\bin\card_applic.map
#    Command line =  
#        -f C:\Users\W7\AppData\Local\Temp\EW101A.tmp
#        (D:\ESSEK_WORKSPACES\evb_emb\harborxsmarcard\apollo3evb\iar\bin\am_util_delay.o
#        D:\ESSEK_WORKSPACES\evb_emb\harborxsmarcard\apollo3evb\iar\bin\am_util_faultisr.o
#        D:\ESSEK_WORKSPACES\evb_emb\harborxsmarcard\apollo3evb\iar\bin\am_util_id.o
#        D:\ESSEK_WORKSPACES\evb_emb\harborxsmarcard\apollo3evb\iar\bin\am_util_stdio.o
#        D:\ESSEK_WORKSPACES\evb_emb\harborxsmarcard\apollo3evb\iar\bin\card_applic_main.o
#        D:\ESSEK_WORKSPACES\evb_emb\harborxsmarcard\apollo3evb\iar\bin\hxsc_crypto.o
#        D:\ESSEK_WORKSPACES\evb_emb\harborxsmarcard\apollo3evb\iar\bin\startup_iar.o
#        --no_out_extension -o
#        D:\ESSEK_WORKSPACES\evb_emb\harborxsmarcard\apollo3evb\iar\bin\card_applic.out
#        --map
#        D:\ESSEK_WORKSPACES\evb_emb\harborxsmarcard\apollo3evb\iar\bin\card_applic.map
#        --log libraries,initialization,modules,redirects,sections --log_file
#        D:\ESSEK_WORKSPACES\evb_emb\harborxsmarcard\apollo3evb\iar\bin\card_applic.log
#        --config
#        D:\ESSEK_WORKSPACES\evb_emb\harborxsmarcard\apollo3evb\iar\card_applic.icf
#        --semihosting
#        D:\ESSEK_WORKSPACES\evb_emb\harborxsmarcard\apollo3evb\iar\..\MCU_files\mcu\apollo3\hal\iar\bin\libam_hal.a
#        D:\ESSEK_WORKSPACES\evb_emb\harborxsmarcard\apollo3evb\iar\..\BSP_files\bsp\iar\bin\libam_bsp.a
#        D:\ESSEK_WORKSPACES\evb_emb\harborxsmarcard\apollo3evb\iar\..\..\libtomcrypt\iar\bin\libtomcrypt.a
#        D:\ESSEK_WORKSPACES\evb_emb\harborxsmarcard\apollo3evb\iar\..\..\libtommath\iar\bin\libtommath.a
#        --entry __iar_program_start --redirect
#        __iar_sh_stdout=__iar_sh_stdout_swo --no_vfe --text_out locale)
#
###############################################################################

*******************************************************************************
*** RUNTIME MODEL ATTRIBUTES
***

CppFlavor       = *
__Heap_Handler  = DLMalloc
__SystemLibrary = DLib
__dlib_version  = 6


*******************************************************************************
*** HEAP SELECTION
***

The advanced heap was selected because the application calls memory
allocation functions outside of system library functions, and there
are calls to deallocation functions in the application.


*******************************************************************************
*** PLACEMENT SUMMARY
***

define block FLASHBASE
   with fixed order { ro section .intvec, ro section .patch };
"A0":  place at start of [from 0xc000 to 0xf'c000] { block FLASHBASE };
"P1":  place in [from 0xc000 to 0xf'c000] { ro };
define block CSTACK with size = 1K, alignment = 8 { };
"A1":  place at start of [from 0x1000'0000 to 0x1006'0000] {
          block CSTACK, section .noinit };
define block HEAP with size = 0M, alignment = 8 { };
"P2":  place in [from 0x1000'0000 to 0x1006'0000] { block HEAP, rw };
do not initialize { section .noinit };
initialize by copy { rw };

  Section            Kind         Address     Size  Object
  -------            ----         -------     ----  ------
"A0":                                        0x100
  FLASHBASE                        0xc000    0x100  <Block>
    .intvec          const         0xc000     0xc0  startup_iar.o [1]
    .patch           const         0xc0c0     0x40  startup_iar.o [1]
                                 - 0xc100    0x100

"P1":                                      0x519d7
  .text              ro code       0xc100   0xa09a  saferp.o [5]
  .text              ro code     0x1'619a     0x30  compare_testvector.o [5]
  .text              ro code     0x1'61ca     0x3a  zero_init3.o [8]
  .text              ro code     0x1'6204     0x62  memcmp_unaligned.o [8]
  .text              ro code     0x1'6266     0x1a  xsnprout.o [2]
  .rodata            const       0x1'6280   0x4000  des.o [5]
  .rodata            const       0x1'a280   0x4000  des.o [5]
  .text              ro code     0x1'e280   0x315c  camellia.o [5]
  .text              ro code     0x2'13dc     0x14  zeromem.o [5]
  .text              ro code     0x2'13f0   0x28c4  sha256.o [5]
  .text              ro code     0x2'3cb4     0x76  ABImemcpy_unaligned.o [8]
  .text              ro code     0x2'3d2a     0x1e  xsscin.o [2]
  .text              ro code     0x2'3d48     0x36  strlen.o [8]
  .text              ro code     0x2'3d7e      0x2  startup_iar.o [1]
  .text              ro code     0x2'3d80   0x1d60  dlmalloc.o [2]
  .text              ro code     0x2'5ae0      0x6  abort.o [2]
  .text              ro code     0x2'5ae6      0x2  startup_iar.o [1]
  .text              ro code     0x2'5ae8     0x2c  xgetmemchunk.o [2]
  .text              ro code     0x2'5b14      0x6  ABImemclr.o [8]
  .text              ro code     0x2'5b1c     0x14  exit.o [9]
  .text              ro code     0x2'5b30     0x66  ABImemset.o [8]
  .text              ro code     0x2'5b98   0x1958  serpent.o [5]
  .text              ro code     0x2'74f0      0x6  ABImemclr4.o [8]
  .text              ro code     0x2'74f8     0x32  ABImemset48.o [8]
  .text              ro code     0x2'752c   0x10d0  cast5.o [5]
  .rodata            const       0x2'85fc   0x1000  blowfish.o [5]
  .rodata            const       0x2'95fc   0x1000  twofish.o [5]
  .text              ro code     0x2'a5fc    0xf90  sober128_stream.o [5]
  .text              ro code     0x2'b58c    0xe1e  twofish.o [5]
  .text              ro code     0x2'c3ac    0xd8e  aes.o [5]
  .text              ro code     0x2'd13c    0xa38  kseed.o [5]
  .text              ro code     0x2'db74    0x9b8  rc6.o [5]
  .text              ro code     0x2'e52c    0x9a4  safer.o [5]
  .text              ro code     0x2'eed0    0x924  anubis.o [5]
  .text              ro code     0x2'f7f4    0x8fe  des.o [5]
  .text              ro code     0x3'00f4    0x8c0  am_util_stdio.o [1]
  .text              ro code     0x3'09b4     0x68  DblToFlt.o [7]
  .text              ro code     0x3'0a1c    0x850  der_decode_custom_type.o [5]
  .text              ro code     0x3'126c    0x480  hxsc_crypto.o [1]
  .text              ro code     0x3'16ec    0x158  der_decode_asn1_identifier.o [5]
  .text              ro code     0x3'1844     0x6e  der_decode_asn1_length.o [5]
  .text              ro code     0x3'18b2     0x34  der_decode_boolean.o [5]
  .text              ro code     0x3'18e6      0xa  der_length_boolean.o [5]
  .text              ro code     0x3'18f0     0xbc  der_decode_integer.o [5]
  .text              ro code     0x3'19ac     0xac  der_length_integer.o [5]
  .text              ro code     0x3'1a58     0x48  der_decode_short_integer.o [5]
  .text              ro code     0x3'1aa0     0x50  der_length_short_integer.o [5]
  .text              ro code     0x3'1af0     0xc6  der_decode_bit_string.o [5]
  .text              ro code     0x3'1bb6     0x36  der_length_bit_string.o [5]
  .text              ro code     0x3'1bec    0x104  der_decode_raw_bit_string.o [5]
  .text              ro code     0x3'1cf0     0x90  der_decode_octet_string.o [5]
  .text              ro code     0x3'1d80     0x24  der_length_octet_string.o [5]
  .text              ro code     0x3'1da4     0xfc  der_decode_object_identifier.o [5]
  .text              ro code     0x3'1ea0     0xc8  der_length_object_identifier.o [5]
  .text              ro code     0x3'1f68     0xa2  der_decode_teletex_string.o [5]
  .text              ro code     0x3'200c     0x96  der_length_teletex_string.o [5]
  .text              ro code     0x3'20a2     0xa2  der_decode_ia5_string.o [5]
  .text              ro code     0x3'2144     0x96  der_length_ia5_string.o [5]
  .text              ro code     0x3'21da     0xa2  der_decode_printable_string.o [5]
  .text              ro code     0x3'227c     0x96  der_length_printable_string.o [5]
  .text              ro code     0x3'2312     0xfc  der_decode_utf8_string.o [5]
  .text              ro code     0x3'240e     0x8c  der_length_utf8_string.o [5]
  .text              ro code     0x3'249a    0x2e0  der_decode_utctime.o [5]
  .text              ro code     0x3'277a    0x2c8  der_decode_generalizedtime.o [5]
  .text              ro code     0x3'2a42     0x26  der_decode_sequence_ex.o [5]
  .text              ro code     0x3'2a68    0x258  der_length_sequence.o [5]
  .text              ro code     0x3'2cc0    0x2aa  der_length_custom_type.o [5]
  .text              ro code     0x3'2f6a    0x42e  der_decode_choice.o [5]
  .text              ro code     0x3'3398      0x8  heaptramp0.o [2]
  .text              ro code     0x3'33a0    0x100  crypt_register_all_ciphers.o [5]
  .text              ro code     0x3'34a0     0x1c  crypt_register_all_hashes.o [5]
  .text              ro code     0x3'34bc     0x44  crypt_register_all_prngs.o [5]
  .text              ro code     0x3'3500     0x3c  crypt_find_prng.o [5]
  .text              ro code     0x3'353c     0xe4  rng_make_prng.o [5]
  .text              ro code     0x3'3620     0x34  crypt_inits.o [5]
  .text              ro code     0x3'3654     0x3c  crypt_find_hash.o [5]
  .text              ro code     0x3'3690    0x258  rsa_import.o [5]
  .text              ro code     0x3'38e8     0xec  rsa_decrypt_key.o [5]
  .text              ro code     0x3'39d4    0x174  ecc_find_curve.o [5]
  .text              ro code     0x3'3b48    0x100  ecc_set_curve.o [5]
  .text              ro code     0x3'3c48     0xd8  ecc_set_key.o [5]
  .text              ro code     0x3'3d20    0x430  ecc_sign_hash.o [5]
  .text              ro code     0x3'4150     0x28  sscanf.o [2]
  .text              ro code     0x3'4178      0xa  clock.o [9]
  .text              ro code     0x3'4182     0x12  der_length_asn1_length.o [5]
  .text              ro code     0x3'4194     0x1c  der_length_utctime.o [5]
  .text              ro code     0x3'41b0     0x3a  der_length_generalizedtime.o [5]
  .text              ro code     0x3'41ea     0x12  der_length_asn1_identifier.o [5]
  .text              ro code     0x3'41fc     0x70  crypt_register_cipher.o [5]
  .text              ro code     0x3'426c     0x68  crypt_register_hash.o [5]
  .text              ro code     0x3'42d4     0x68  crypt_register_prng.o [5]
  .text              ro code     0x3'433c     0x12  strcmp.o [8]
  .text              ro code     0x3'4350     0x24  crypt_prng_is_valid.o [5]
  .text              ro code     0x3'4374     0x6e  rng_get_bytes.o [5]
  .text              ro code     0x3'43e4     0xb4  multi.o [5]
  .text              ro code     0x3'4498    0x266  x509_decode_subject_public_key_info.o [5]
  .text              ro code     0x3'46fe    0x13e  der_decode_sequence_multi.o [5]
  .text              ro code     0x3'483c     0x24  crypt_hash_is_valid.o [5]
  .text              ro code     0x3'4860    0x270  pkcs_1_oaep_decode.o [5]
  .text              ro code     0x3'4ad0     0xf4  pkcs_1_v1_5_decode.o [5]
  .text              ro code     0x3'4bc4    0x16c  pk_oid_str.o [5]
  .text              ro code     0x3'4d30     0x4c  ecc_free.o [5]
  .text              ro code     0x3'4d7c    0x1a8  ltc_ecc_import_point.o [5]
  .text              ro code     0x3'4f24     0xe0  ltc_ecc_verify_key.o [5]
  .text              ro code     0x3'5004    0x1cc  ecc_set_curve_internal.o [5]
  .text              ro code     0x3'51d0     0x58  ecc_make_key.o [5]
  .text              ro code     0x3'5228     0xf4  rand_bn.o [5]
  .text              ro code     0x3'531c    0x160  der_encode_sequence_multi.o [5]
  .text              ro code     0x3'547c     0x7a  pk_oid_cmp.o [5]
  .text              ro code     0x3'54f8     0xb8  ecc_ssh_ecdsa_encode_name.o [5]
  .text              ro code     0x3'55b0    0x2e8  ssh_encode_sequence_multi.o [5]
  .text              ro code     0x3'5898    0x594  xscanfsmall_nomb.o [2]
  .text              ro code     0x3'5e2c     0xba  der_encode_asn1_length.o [5]
  .text              ro code     0x3'5ee8    0x148  der_encode_asn1_identifier.o [5]
  .text              ro code     0x3'6030     0xa4  rand.o [2]
  .text              ro code     0x3'60d4     0x34  pk_get_oid.o [5]
  .text              ro code     0x3'6108    0x11c  pkcs_1_mgf1.o [5]
  .text              ro code     0x3'6224     0xb0  hash_memory.o [5]
  .text              ro code     0x3'62d4     0x44  mem_neq.o [5]
  .text              ro code     0x3'6318    0x134  ltc_ecc_is_point.o [5]
  .text              ro code     0x3'644c     0xec  ltc_ecc_points.o [5]
  .text              ro code     0x3'6538    0x350  ltc_ecc_mulmod_timing.o [5]
  .text              ro code     0x3'6888     0xc8  ltc_ecc_is_point_at_infinity.o [5]
  .text              ro code     0x3'6950    0x2fc  der_encode_sequence_ex.o [5]
  .text              ro code     0x3'6c4c     0x18  ecc_get_oid_str.o [5]
  .text              ro code     0x3'6c64     0x44  snprintf.o [2]
  .text              ro code     0x3'6ca8     0x6c  strncpy_unaligned.o [8]
  .text              ro code     0x3'6d14     0x16  strchr.o [8]
  .text              ro code     0x3'6d2c     0x40  xfail_s.o [2]
  .text              ro code     0x3'6d6c     0x82  iar_Stolx.o [2]
  .text              ro code     0x3'6df0    0x14a  iar_Stoulx.o [2]
  .text              ro code     0x3'6f3c     0x1e  U64Shr.o [8]
  .text              ro code     0x3'6f5c    0x11c  ltc_ecc_map.o [5]
  .text              ro code     0x3'7078     0x2c  der_encode_boolean.o [5]
  .text              ro code     0x3'70a4    0x1cc  der_encode_integer.o [5]
  .text              ro code     0x3'7270     0x9a  der_encode_short_integer.o [5]
  .text              ro code     0x3'730a     0xd0  der_encode_bit_string.o [5]
  .text              ro code     0x3'73da     0xf0  der_encode_raw_bit_string.o [5]
  .text              ro code     0x3'74ca     0x7e  der_encode_octet_string.o [5]
  .text              ro code     0x3'7548    0x170  der_encode_object_identifier.o [5]
  .text              ro code     0x3'76b8     0x8a  der_encode_ia5_string.o [5]
  .text              ro code     0x3'7742     0x8a  der_encode_printable_string.o [5]
  .text              ro code     0x3'77cc    0x1de  der_encode_utf8_string.o [5]
  .text              ro code     0x3'79ac    0x294  der_encode_utctime.o [5]
  .text              ro code     0x3'7c40    0x308  der_encode_generalizedtime.o [5]
  .text              ro code     0x3'7f48     0xbc  der_encode_set.o [5]
  .text              ro code     0x3'8004    0x200  der_encode_setof.o [5]
  .text              ro code     0x3'8204    0x348  der_encode_custom_type.o [5]
  .text              ro code     0x3'854c    0x13e  xprintftiny.o [2]
  .text              ro code     0x3'868c     0x58  memchr.o [8]
  .text              ro code     0x3'86e4    0x4cc  qsort.o [2]
  .text              ro code     0x3'8bb0     0x78  ABImemmove_unaligned.o [8]
  .rodata            const       0x3'8c28    0x800  kasumi.o [5]
  .rodata            const       0x3'9428    0x800  khazad.o [5]
  .rodata            const       0x3'9c28    0x800  khazad.o [5]
  .rodata            const       0x3'a428    0x800  khazad.o [5]
  .rodata            const       0x3'ac28    0x800  khazad.o [5]
  .rodata            const       0x3'b428    0x800  khazad.o [5]
  .rodata            const       0x3'bc28    0x800  khazad.o [5]
  .rodata            const       0x3'c428    0x800  khazad.o [5]
  .rodata            const       0x3'cc28    0x800  khazad.o [5]
  .text              ro code     0x3'd428    0x6d6  khazad.o [5]
  .text              ro code     0x3'db00    0x69c  sha1.o [5]
  .text              ro code     0x3'e19c    0x67c  ltc_ecc_projective_add_point.o [5]
  .text              ro code     0x3'e818    0x540  ltc_ecc_projective_dbl_point.o [5]
  .text              ro code     0x3'ed58    0x5e0  rc5.o [5]
  .text              ro code     0x3'f338    0x5dc  blowfish.o [5]
  .text              ro code     0x3'f914    0x5ba  noekeon.o [5]
  .text              ro code     0x3'fed0    0x554  idea.o [5]
  .text              ro code     0x4'0424    0x548  bn_mp_prime_strong_lucas_selfridge.o [6]
  .text              ro code     0x4'096c     0x3a  bn_mp_init.o [6]
  .text              ro code     0x4'09a6     0x48  bn_mp_set_long.o [6]
  .text              ro code     0x4'09f0     0x9c  bn_mp_mul.o [6]
  .text              ro code     0x4'0a8c     0x36  bn_mp_clear.o [6]
  .text              ro code     0x4'0ac2     0x44  bn_mp_init_multi.o [6]
  .text              ro code     0x4'0b06    0x134  bn_mp_gcd.o [6]
  .text              ro code     0x4'0c3a     0x34  bn_mp_cmp_d.o [6]
  .text              ro code     0x4'0c6e     0x34  bn_mp_cmp.o [6]
  .text              ro code     0x4'0ca4    0x1a0  bn_mp_kronecker.o [6]
  .text              ro code     0x4'0e44     0xf2  bn_mp_add_d.o [6]
  .text              ro code     0x4'0f38     0x48  bn_mp_cnt_lsb.o [6]
  .text              ro code     0x4'0f80     0xb2  bn_mp_div_2d.o [6]
  .text              ro code     0x4'1032     0x26  bn_mp_set.o [6]
  .text              ro code     0x4'1058     0x82  bn_mp_mul_2.o [6]
  .text              ro code     0x4'10da     0x2c  bn_mp_count_bits.o [6]
  .text              ro code     0x4'1106     0xec  bn_mp_sub_d.o [6]
  .text              ro code     0x4'11f2     0x68  bn_mp_mod.o [6]
  .text              ro code     0x4'125c     0x58  bn_mp_sqr.o [6]
  .text              ro code     0x4'12b4     0x52  bn_mp_sub.o [6]
  .text              ro code     0x4'1306     0x4e  bn_mp_get_bit.o [6]
  .text              ro code     0x4'1354     0x50  bn_mp_add.o [6]
  .text              ro code     0x4'13a4     0x86  bn_mp_div_2.o [6]
  .text              ro code     0x4'142a     0x1a  bn_mp_clear_multi.o [6]
  .text              ro code     0x4'1444     0x1e  bn_mp_zero.o [6]
  .text              ro code     0x4'1462     0xc0  bn_mp_mul_2d.o [6]
  .text              ro code     0x4'1522     0x2a  bn_mp_clamp.o [6]
  .text              ro code     0x4'154c    0x4ba  bn_mp_toom_mul.o [6]
  .text              ro code     0x4'1a06    0x1e6  bn_mp_karatsuba_mul.o [6]
  .text              ro code     0x4'1bec     0xf2  bn_fast_s_mp_mul_digs.o [6]
  .text              ro code     0x4'1cde     0xe8  bn_s_mp_mul_digs.o [6]
  .text              ro code     0x4'1dc6     0x1e  bn_mp_abs.o [6]
  .text              ro code     0x4'1de4     0x2e  bn_mp_init_copy.o [6]
  .text              ro code     0x4'1e12     0x60  bn_mp_cmp_mag.o [6]
  .text              ro code     0x4'1e72     0x2a  bn_mp_exch.o [6]
  .text              ro code     0x4'1e9c     0xa8  bn_s_mp_sub.o [6]
  .text              ro code     0x4'1f44     0x5c  bn_mp_copy.o [6]
  .text              ro code     0x4'1fa0     0x48  bn_mp_grow.o [6]
  .text              ro code     0x4'1fe8     0x9a  bn_mp_mod_2d.o [6]
  .text              ro code     0x4'2082     0x48  bn_mp_rshd.o [6]
  .text              ro code     0x4'20ca     0x48  bn_mp_init_size.o [6]
  .text              ro code     0x4'2112    0x3b4  bn_mp_div.o [6]
  .text              ro code     0x4'24c6    0x380  bn_mp_toom_sqr.o [6]
  .text              ro code     0x4'2846    0x150  bn_mp_karatsuba_sqr.o [6]
  .text              ro code     0x4'2996    0x160  bn_fast_s_mp_sqr.o [6]
  .text              ro code     0x4'2af6    0x102  bn_s_mp_sqr.o [6]
  .text              ro code     0x4'2bf8     0xc8  bn_s_mp_add.o [6]
  .text              ro code     0x4'2cc0     0x84  bn_mp_lshd.o [6]
  .text              ro code     0x4'2d44     0x8c  bn_mp_mul_d.o [6]
  .text              ro code     0x4'2dd0     0xdc  bn_mp_div_3.o [6]
  .text              ro code     0x4'2eac    0x230  I64DivMod.o [8]
  .text              ro code     0x4'30dc      0x2  I64DivZer.o [8]
  .text              ro code     0x4'30e0    0x524  rc2.o [5]
  .text              ro code     0x4'3604    0x4ee  fortuna.o [5]
  .text              ro code     0x4'3af4    0x4ca  multi2.o [5]
  .text              ro code     0x4'3fbe    0x4b8  chacha_crypt.o [5]
  .text              ro code     0x4'4478    0x494  skipjack.o [5]
  .text              ro code     0x4'490c    0x490  kasumi.o [5]
  .text              ro code     0x4'4d9c    0x47e  ltm_desc.o [5]
  .text              ro code     0x4'521a     0x38  bn_mp_neg.o [6]
  .text              ro code     0x4'5252     0x48  bn_mp_set_int.o [6]
  .text              ro code     0x4'529a     0x34  bn_mp_get_int.o [6]
  .text              ro code     0x4'52ce     0x4e  bn_mp_2expt.o [6]
  .text              ro code     0x4'531c     0xc4  bn_mp_read_radix.o [6]
  .text              ro code     0x4'53e0     0xa4  bn_mp_toradix.o [6]
  .text              ro code     0x4'5484     0x20  bn_mp_unsigned_bin_size.o [6]
  .text              ro code     0x4'54a4     0x56  bn_mp_to_unsigned_bin.o [6]
  .text              ro code     0x4'54fa     0x62  bn_mp_read_unsigned_bin.o [6]
  .text              ro code     0x4'555c    0x312  bn_mp_sqrtmod_prime.o [6]
  .text              ro code     0x4'586e      0xc  bn_mp_mod_d.o [6]
  .text              ro code     0x4'587a     0x8e  bn_mp_lcm.o [6]
  .text              ro code     0x4'5908     0x4e  bn_mp_addmod.o [6]
  .text              ro code     0x4'5956     0x4e  bn_mp_submod.o [6]
  .text              ro code     0x4'59a4     0x50  bn_mp_mulmod.o [6]
  .text              ro code     0x4'59f4     0x48  bn_mp_sqrmod.o [6]
  .text              ro code     0x4'5a3c     0x4e  bn_mp_invmod.o [6]
  .text              ro code     0x4'5a8a     0x42  bn_mp_montgomery_setup.o [6]
  .text              ro code     0x4'5acc     0x82  bn_mp_montgomery_calc_normalization.o [6]
  .text              ro code     0x4'5b4e    0x108  bn_mp_montgomery_reduce.o [6]
  .text              ro code     0x4'5c56    0x102  bn_mp_exptmod.o [6]
  .text              ro code     0x4'5d58    0x2ac  bn_mp_prime_is_prime.o [6]
  .text              ro code     0x4'6004     0xd2  bn_mp_rand.o [6]
  .text              ro code     0x4'60d6      0xc  toupper.o [2]
  .text              ro code     0x4'60e2    0x15c  bn_mp_div_d.o [6]
  .text              ro code     0x4'623e     0x1c  bn_reverse.o [6]
  .text              ro code     0x4'625a     0x32  bn_mp_jacobi.o [6]
  .text              ro code     0x4'628c    0x242  bn_fast_mp_invmod.o [6]
  .text              ro code     0x4'64ce    0x30a  bn_mp_invmod_slow.o [6]
  .text              ro code     0x4'67d8    0x18e  bn_fast_mp_montgomery_reduce.o [6]
  .text              ro code     0x4'6966     0x54  bn_mp_reduce_is_2k_l.o [6]
  .text              ro code     0x4'69bc    0x370  bn_s_mp_exptmod.o [6]
  .text              ro code     0x4'6d2c     0x2c  bn_mp_dr_is_modulus.o [6]
  .text              ro code     0x4'6d58     0x50  bn_mp_reduce_is_2k.o [6]
  .text              ro code     0x4'6da8    0x3ec  bn_mp_exptmod_fast.o [6]
  .text              ro code     0x4'7194    0x15c  bn_mp_is_square.o [6]
  .text              ro code     0x4'72f0     0x44  bn_mp_prime_is_divisible.o [6]
  .text              ro code     0x4'7334     0x22  bn_mp_init_set.o [6]
  .text              ro code     0x4'7356    0x108  bn_mp_prime_miller_rabin.o [6]
  .text              ro code     0x4'745e     0x2a  bn_mp_reduce_setup.o [6]
  .text              ro code     0x4'7488     0x44  bn_mp_reduce_2k_setup_l.o [6]
  .text              ro code     0x4'74cc      0xc  bn_mp_dr_setup.o [6]
  .text              ro code     0x4'74d8     0x60  bn_mp_reduce_2k_setup.o [6]
  .text              ro code     0x4'7538     0x1e  bn_mp_init_set_int.o [6]
  .text              ro code     0x4'7556     0xdc  bn_mp_sqrt.o [6]
  .rodata            const       0x4'7634    0x428  anubis.o [5]
  .text              ro code     0x4'7a5c    0x41c  rc4.o [5]
  .text              ro code     0x4'7e78    0x12e  rc4_stream.o [5]
  .rodata            const       0x4'7fa8    0x400  aes.o [5]
  .rodata            const       0x4'83a8    0x400  aes.o [5]
  .rodata            const       0x4'87a8    0x400  aes.o [5]
  .rodata            const       0x4'8ba8    0x400  aes.o [5]
  .rodata            const       0x4'8fa8    0x400  aes.o [5]
  .rodata            const       0x4'93a8    0x400  aes.o [5]
  .rodata            const       0x4'97a8    0x400  aes.o [5]
  .rodata            const       0x4'9ba8    0x400  aes.o [5]
  .rodata            const       0x4'9fa8    0x400  aes.o [5]
  .rodata            const       0x4'a3a8    0x400  aes.o [5]
  .rodata            const       0x4'a7a8    0x400  aes.o [5]
  .rodata            const       0x4'aba8    0x400  aes.o [5]
  .rodata            const       0x4'afa8    0x400  aes.o [5]
  .rodata            const       0x4'b3a8    0x400  aes.o [5]
  .rodata            const       0x4'b7a8    0x400  aes.o [5]
  .rodata            const       0x4'bba8    0x400  aes.o [5]
  .rodata            const       0x4'bfa8    0x400  aes.o [5]
  .rodata            const       0x4'c3a8    0x400  anubis.o [5]
  .rodata            const       0x4'c7a8    0x400  anubis.o [5]
  .rodata            const       0x4'cba8    0x400  anubis.o [5]
  .rodata            const       0x4'cfa8    0x400  anubis.o [5]
  .rodata            const       0x4'd3a8    0x400  anubis.o [5]
  .rodata            const       0x4'd7a8    0x400  anubis.o [5]
  .rodata            const       0x4'dba8    0x400  camellia.o [5]
  .rodata            const       0x4'dfa8    0x400  camellia.o [5]
  .rodata            const       0x4'e3a8    0x400  camellia.o [5]
  .rodata            const       0x4'e7a8    0x400  camellia.o [5]
  .rodata            const       0x4'eba8    0x400  cast5.o [5]
  .rodata            const       0x4'efa8    0x400  cast5.o [5]
  .rodata            const       0x4'f3a8    0x400  cast5.o [5]
  .rodata            const       0x4'f7a8    0x400  cast5.o [5]
  .rodata            const       0x4'fba8    0x400  cast5.o [5]
  .rodata            const       0x4'ffa8    0x400  cast5.o [5]
  .rodata            const       0x5'03a8    0x400  cast5.o [5]
  .rodata            const       0x5'07a8    0x400  cast5.o [5]
  .rodata            const       0x5'0ba8    0x400  kseed.o [5]
  .rodata            const       0x5'0fa8    0x400  kseed.o [5]
  .rodata            const       0x5'13a8    0x400  kseed.o [5]
  .rodata            const       0x5'17a8    0x400  kseed.o [5]
  .rodata            const       0x5'1ba8    0x400  sober128_stream.o [5]
  .rodata            const       0x5'1fa8    0x400  sober128_stream.o [5]
  .rodata            const       0x5'23a8    0x400  bn_prime_tab.o [6]
  .text              ro code     0x5'27a8    0x3f0  chacha20.o [5]
  .text              ro code     0x5'2b98     0x34  chacha_keystream.o [5]
  .text              ro code     0x5'2bcc    0x14c  chacha_setup.o [5]
  .text              ro code     0x5'2d18     0x4c  chacha_ivctr64.o [5]
  .text              ro code     0x5'2d64     0x18  chacha_done.o [5]
  .text              ro code     0x5'2d7c    0x3dc  sober128.o [5]
  .text              ro code     0x5'3158    0x3ce  xtea.o [5]
  .text              ro code     0x5'3528    0x3c0  ltc_ecc_mul2add.o [5]
  .rodata            const       0x5'38e8    0x3b0  der_length_teletex_string.o [5]
  .text              ro code     0x5'3c98    0x3a8  am_hal_gpio.o [4]
  .text              ro code     0x5'4040     0x14  am_hal_interrupt.o [4]
  .rodata            const       0x5'4054    0x330  der_length_ia5_string.o [5]
  .text              ro code     0x5'4384    0x300  rsa_exptmod.o [5]
  .rodata            const       0x5'4684    0x2a0  ecc.o [5]
  .text              ro code     0x5'4924    0x298  yarrow.o [5]
  .text              ro code     0x5'4bbc     0x24  crypt_cipher_is_valid.o [5]
  .text              ro code     0x5'4be0    0x150  ctr_start.o [5]
  .text              ro code     0x5'4d30    0x1b4  ctr_encrypt.o [5]
  .text              ro code     0x5'4ee4     0x30  ctr_done.o [5]
  .rodata            const       0x5'4f14    0x280  des.o [5]
  .rodata            const       0x5'5194    0x264  serpent.o [5]
  .text              ro code     0x5'53f8    0x258  rsa_make_key.o [5]
  .text              ro code     0x5'5650     0xf8  rand_prime.o [5]
  .text              ro code     0x5'5748     0x38  rsa_free.o [5]
  .rodata            const       0x5'5780    0x250  der_length_printable_string.o [5]
  .rodata            const       0x5'59d0    0x24c  ecc_find_curve.o [5]
  .rodata            const       0x5'5c1c    0x210  saferp.o [5]
  .rodata            const       0x5'5e2c    0x200  kasumi.o [5]
  .rodata            const       0x5'602c    0x200  twofish.o [5]
  .text              ro code     0x5'622c    0x1f8  card_applic_main.o [1]
  .text              ro code     0x5'6424    0x128  am_hal_clkgen.o [4]
  .text              ro code     0x5'654c     0x5c  am_hal_cachectrl.o [4]
  .text              ro code     0x5'65a8     0xb8  am_bsp.o [3]
  .text              ro code     0x5'6660    0x12c  am_util_id.o [1]
  .text              ro code     0x5'678c     0xc8  am_hal_security.o [4]
  .text              ro code     0x5'6854     0xac  am_hal_pwrctrl.o [4]
  .text              ro code     0x5'6900     0x30  am_hal_rtc.o [4]
  .text              ro code     0x5'6930     0xe8  am_hal_itm.o [4]
  .text              ro code     0x5'6a18     0xb4  am_hal_tpiu.o [4]
  .text              ro code     0x5'6acc    0x1d4  am_hal_mcuctrl.o [4]
  .text              ro code     0x5'6ca0     0x58  am_hal_flash.o [4]
  .rodata            const       0x5'6cf8    0x1a0  noekeon.o [5]
  .rodata            const       0x5'6e98    0x140  xtea.o [5]
  .rodata            const       0x5'6fd8    0x118  rc2.o [5]
  .rodata            const       0x5'70f0    0x110  camellia.o [5]
  .rodata            const       0x5'7200    0x100  des.o [5]
  .rodata            const       0x5'7300    0x100  des.o [5]
  .rodata            const       0x5'7400    0x100  des.o [5]
  .rodata            const       0x5'7500    0x100  des.o [5]
  .rodata            const       0x5'7600    0x100  des.o [5]
  .rodata            const       0x5'7700    0x100  des.o [5]
  .rodata            const       0x5'7800    0x100  des.o [5]
  .rodata            const       0x5'7900    0x100  des.o [5]
  .rodata            const       0x5'7a00    0x100  rc2.o [5]
  .rodata            const       0x5'7b00    0x100  safer.o [5]
  .rodata            const       0x5'7c00    0x100  safer.o [5]
  .rodata            const       0x5'7d00    0x100  saferp.o [5]
  .rodata            const       0x5'7e00    0x100  saferp.o [5]
  .rodata            const       0x5'7f00    0x100  skipjack.o [5]
  .text              ro code     0x5'8000     0xf4  bn_mp_reduce.o [6]
  .text              ro code     0x5'80f4     0xee  bn_s_mp_mul_high_digs.o [6]
  .text              ro code     0x5'81e2     0xf2  bn_fast_s_mp_mul_high_digs.o [6]
  .text              ro code     0x5'82d4     0xd8  am_util_faultisr.o [1]
  .rodata            const       0x5'83ac     0xd4  ltm_desc.o [5]
  .rodata            const       0x5'8480     0xcc  aes.o [5]
  .rodata            const       0x5'854c     0xcc  rc6.o [5]
  .rodata            const       0x5'8618     0xcc  saferp.o [5]
  .rodata            const       0x5'86e4     0xcc  twofish.o [5]
  .rodata            const       0x5'87b0     0xc8  am_hal_gpio.o [4]
  .rodata            const       0x5'8878     0xc8  rc5.o [5]
  .rodata            const       0x5'8940     0xc0  kseed.o [5]
  .text              ro code     0x5'8a00     0xb4  sprng.o [5]
  .rodata            const       0x5'8ab4     0xb0  rc6.o [5]
  .text              ro code     0x5'8b64     0xaa  bn_mp_dr_reduce.o [6]
  .rodata            const       0x5'8c10     0xa0  idea.o [5]
  .rodata            const       0x5'8cb0     0xa0  kasumi.o [5]
  .text              ro code     0x5'8d50     0x8e  bn_mp_reduce_2k.o [6]
  .text              ro code     0x5'8dde     0x88  bn_mp_reduce_2k_l.o [6]
  .rodata            const       0x5'8e68     0x84  ecc.o [5]
  .rodata            const       0x5'8eec     0x84  ecc.o [5]
  .rodata            const       0x5'8f70     0x84  ecc.o [5]
  .rodata            const       0x5'8ff4     0x84  ecc.o [5]
  .rodata            const       0x5'9078     0x84  ecc.o [5]
  .rodata            const       0x5'90fc     0x84  ecc.o [5]
  .rodata            const       0x5'9180     0x84  ecc.o [5]
  .rodata            const       0x5'9204     0x84  ecc.o [5]
  .rodata            const       0x5'9288     0x84  ecc.o [5]
  .rodata            const       0x5'930c     0x84  ecc.o [5]
  .rodata            const       0x5'9390     0x80  khazad.o [5]
  .rodata            const       0x5'9410     0x80  bn_mp_is_square.o [6]
  .rodata            const       0x5'9490     0x78  multi2.o [5]
  .rodata            const       0x5'9508     0x6c  card_applic_main.o [1]
  .rodata            const       0x5'9574     0x6c  cast5.o [5]
  .rodata            const       0x5'95e0     0x6c  bn_mp_is_square.o [6]
  .rodata            const       0x5'964c     0x68  sha256.o [5]
  .rodata            const       0x5'96b4     0x68  aes.o [5]
  .rodata            const       0x5'971c     0x68  aes.o [5]
  .rodata            const       0x5'9784     0x68  anubis.o [5]
  .rodata            const       0x5'97ec     0x68  blowfish.o [5]
  .rodata            const       0x5'9854     0x68  camellia.o [5]
  .rodata            const       0x5'98bc     0x68  cast5.o [5]
  .rodata            const       0x5'9924     0x68  des.o [5]
  .rodata            const       0x5'998c     0x68  des.o [5]
  .rodata            const       0x5'99f4     0x68  idea.o [5]
  .rodata            const       0x5'9a5c     0x68  kasumi.o [5]
  .rodata            const       0x5'9ac4     0x68  khazad.o [5]
  .rodata            const       0x5'9b2c     0x68  kseed.o [5]
  .rodata            const       0x5'9b94     0x68  multi2.o [5]
  .rodata            const       0x5'9bfc     0x68  noekeon.o [5]
  .rodata            const       0x5'9c64     0x68  rc2.o [5]
  .rodata            const       0x5'9ccc     0x68  rc5.o [5]
  .rodata            const       0x5'9d34     0x68  rc6.o [5]
  .rodata            const       0x5'9d9c     0x68  safer.o [5]
  .rodata            const       0x5'9e04     0x68  safer.o [5]
  .rodata            const       0x5'9e6c     0x68  safer.o [5]
  .rodata            const       0x5'9ed4     0x68  safer.o [5]
  .rodata            const       0x5'9f3c     0x68  saferp.o [5]
  .rodata            const       0x5'9fa4     0x68  serpent.o [5]
  .rodata            const       0x5'a00c     0x68  skipjack.o [5]
  .rodata            const       0x5'a074     0x68  twofish.o [5]
  .rodata            const       0x5'a0dc     0x68  xtea.o [5]
  .rodata            const       0x5'a144     0x68  sha1.o [5]
  .rodata            const       0x5'a1ac     0x64  ecc.o [5]
  .rodata            const       0x5'a210     0x64  ecc.o [5]
  .rodata            const       0x5'a274     0x64  ecc.o [5]
  .rodata            const       0x5'a2d8     0x64  ecc.o [5]
  .rodata            const       0x5'a33c     0x64  ecc.o [5]
  .rodata            const       0x5'a3a0     0x64  ecc.o [5]
  .rodata            const       0x5'a404     0x64  ecc.o [5]
  .rodata            const       0x5'a468     0x64  ecc.o [5]
  .rodata            const       0x5'a4cc     0x64  ecc.o [5]
  .rodata            const       0x5'a530     0x64  ecc.o [5]
  .rodata            const       0x5'a594     0x60  am_hal_flash.o [4]
  .rodata            const       0x5'a5f4     0x60  des.o [5]
  .rodata            const       0x5'a654     0x60  rc5.o [5]
  .rodata            const       0x5'a6b4     0x58  bn_mp_radix_smap.o [6]
  .rodata            const       0x5'a70c     0x54  ecc.o [5]
  .rodata            const       0x5'a760     0x54  ecc.o [5]
  .rodata            const       0x5'a7b4     0x54  ecc.o [5]
  .rodata            const       0x5'a808     0x54  ecc.o [5]
  .rodata            const       0x5'a85c     0x54  ecc.o [5]
  .rodata            const       0x5'a8b0     0x54  ecc.o [5]
  .rodata            const       0x5'a904     0x54  ecc.o [5]
  .rodata            const       0x5'a958     0x54  ecc.o [5]
  .rodata            const       0x5'a9ac     0x54  ecc.o [5]
  .rodata            const       0x5'aa00     0x54  ecc.o [5]
  .rodata            const       0x5'aa54     0x50  der_asn1_maps.o [5]
  .rodata            const       0x5'aaa4     0x50  iar_Stoulx.o [2]
  .rodata            const       0x5'aaf4     0x4c  anubis.o [5]
  .rodata            const       0x5'ab40     0x48  sha256.o [5]
  .rodata            const       0x5'ab88     0x48  blowfish.o [5]
  .rodata            const       0x5'abd0     0x48  blowfish.o [5]
  .rodata            const       0x5'ac18     0x48  khazad.o [5]
  .rodata            const       0x5'ac60     0x44  ecc.o [5]
  .rodata            const       0x5'aca4     0x44  ecc.o [5]
  .rodata            const       0x5'ace8     0x44  ecc.o [5]
  .rodata            const       0x5'ad2c     0x44  ecc.o [5]
  .rodata            const       0x5'ad70     0x44  ecc.o [5]
  .rodata            const       0x5'adb4     0x44  ecc.o [5]
  .rodata            const       0x5'adf8     0x44  ecc.o [5]
  .rodata            const       0x5'ae3c     0x44  ecc.o [5]
  .rodata            const       0x5'ae80     0x44  ecc.o [5]
  .rodata            const       0x5'aec4     0x44  ecc.o [5]
  .rodata            const       0x5'af08     0x44  ecc.o [5]
  .rodata            const       0x5'af4c     0x44  ecc.o [5]
  .rodata            const       0x5'af90     0x44  ecc.o [5]
  .rodata            const       0x5'afd4     0x44  ecc.o [5]
  .rodata            const       0x5'b018     0x44  ecc.o [5]
  .rodata            const       0x5'b05c     0x44  ecc.o [5]
  .rodata            const       0x5'b0a0     0x44  noekeon.o [5]
  .rodata            const       0x5'b0e4     0x44  bn_mp_radix_smap.o [6]
  .rodata            const       0x5'b128     0x40  am_hal_mcuctrl.o [4]
  .rodata            const       0x5'b168     0x40  am_hal_mcuctrl.o [4]
  .rodata            const       0x5'b1a8     0x40  ecc.o [5]
  .rodata            const       0x5'b1e8     0x40  ecc.o [5]
  .rodata            const       0x5'b228     0x40  ecc.o [5]
  .rodata            const       0x5'b268     0x40  ecc.o [5]
  .rodata            const       0x5'b2a8     0x40  ecc.o [5]
  .rodata            const       0x5'b2e8     0x40  ecc.o [5]
  .rodata            const       0x5'b328     0x40  ecc.o [5]
  .rodata            const       0x5'b368     0x40  ecc.o [5]
  .rodata            const       0x5'b3a8     0x40  ecc.o [5]
  .rodata            const       0x5'b3e8     0x40  ecc.o [5]
  .rodata            const       0x5'b428     0x40  ecc.o [5]
  .rodata            const       0x5'b468     0x40  ecc.o [5]
  .rodata            const       0x5'b4a8     0x40  ecc.o [5]
  .rodata            const       0x5'b4e8     0x40  ecc.o [5]
  .rodata            const       0x5'b528     0x40  kseed.o [5]
  .rodata            const       0x5'b568     0x40  bn_mp_cnt_lsb.o [6]
  .rodata            const       0x5'b5a8     0x3c  sha256.o [5]
  .rodata            const       0x5'b5e4     0x3c  ecc.o [5]
  .rodata            const       0x5'b620     0x3c  ecc.o [5]
  .rodata            const       0x5'b65c     0x3c  ecc.o [5]
  .rodata            const       0x5'b698     0x3c  ecc.o [5]
  .rodata            const       0x5'b6d4     0x3c  ecc.o [5]
  .rodata            const       0x5'b710     0x3c  ecc.o [5]
  .rodata            const       0x5'b74c     0x3c  ecc.o [5]
  .rodata            const       0x5'b788     0x3c  ecc.o [5]
  .rodata            const       0x5'b7c4     0x3c  ecc.o [5]
  .rodata            const       0x5'b800     0x3c  ecc.o [5]
  .rodata            const       0x5'b83c     0x3c  sha1.o [5]
  .rodata            const       0x5'b878     0x38  des.o [5]
  .text              ro code     0x5'b8b0     0x38  packbits_init_single.o [8]
  .rodata            const       0x5'b8e8     0x34  am_hal_gpio.o [4]
  .rodata            const       0x5'b91c     0x34  am_hal_gpio.o [4]
  .rodata            const       0x5'b950     0x34  am_hal_gpio.o [4]
  .rodata            const       0x5'b984     0x34  ecc.o [5]
  .rodata            const       0x5'b9b8     0x34  ecc.o [5]
  .rodata            const       0x5'b9ec     0x34  ecc.o [5]
  .rodata            const       0x5'ba20     0x34  ecc.o [5]
  .rodata            const       0x5'ba54     0x34  ecc.o [5]
  .rodata            const       0x5'ba88     0x34  ecc.o [5]
  .rodata            const       0x5'babc     0x34  ecc.o [5]
  .rodata            const       0x5'baf0     0x34  ecc.o [5]
  .rodata            const       0x5'bb24     0x34  ecc.o [5]
  .rodata            const       0x5'bb58     0x34  ecc.o [5]
  .rodata            const       0x5'bb8c     0x34  ecc.o [5]
  .rodata            const       0x5'bbc0     0x34  ecc.o [5]
  .rodata            const       0x5'bbf4     0x34  ecc.o [5]
  .rodata            const       0x5'bc28     0x34  ecc.o [5]
  .rodata            const       0x5'bc5c     0x34  ecc.o [5]
  .rodata            const       0x5'bc90     0x34  ecc.o [5]
  .rodata            const       0x5'bcc4     0x34  ecc.o [5]
  .rodata            const       0x5'bcf8     0x34  ecc.o [5]
  .rodata            const       0x5'bd2c     0x34  ecc.o [5]
  .rodata            const       0x5'bd60     0x34  ecc.o [5]
  .rodata            const       0x5'bd94     0x34  chacha20.o [5]
  .rodata            const       0x5'bdc8     0x34  rc4.o [5]
  .rodata            const       0x5'bdfc     0x34  sober128.o [5]
  .rodata            const       0x5'be30     0x30  card_applic_main.o [1]
  .rodata            const       0x5'be60     0x30  am_hal_global.o [4]
  .rodata            const       0x5'be90     0x30  camellia.o [5]
  .rodata            const       0x5'bec0     0x30  des.o [5]
  .rodata            const       0x5'bef0     0x30  sha1.o [5]
  .rodata            const       0x5'bf20     0x2c  hxsc_crypto.o [1]
  .rodata            const       0x5'bf4c     0x2c  hxsc_crypto.o [1]
  .rodata            const       0x5'bf78     0x2c  hxsc_crypto.o [1]
  .rodata            const       0x5'bfa4     0x2c  ecc.o [5]
  .rodata            const       0x5'bfd0     0x2c  ecc.o [5]
  .rodata            const       0x5'bffc     0x2c  ecc.o [5]
  .rodata            const       0x5'c028     0x2c  ecc.o [5]
  .rodata            const       0x5'c054     0x2c  ecc.o [5]
  .rodata            const       0x5'c080     0x2c  ecc.o [5]
  .rodata            const       0x5'c0ac     0x2c  ecc.o [5]
  .rodata            const       0x5'c0d8     0x2c  ecc.o [5]
  .rodata            const       0x5'c104     0x2c  ecc.o [5]
  .rodata            const       0x5'c130     0x2c  ecc.o [5]
  .rodata            const       0x5'c15c     0x28  card_applic_main.o [1]
  .rodata            const       0x5'c184     0x28  card_applic_main.o [1]
  .rodata            const       0x5'c1ac     0x28  card_applic_main.o [1]
  .rodata            const       0x5'c1d4     0x28  aes.o [5]
  .rodata            const       0x5'c1fc     0x28  skipjack.o [5]
  .rodata            const       0x5'c224     0x28  skipjack.o [5]
  .rodata            const       0x5'c24c     0x28  chacha20.o [5]
  .rodata            const       0x5'c274     0x28  fortuna.o [5]
  .rodata            const       0x5'c29c     0x28  rc4.o [5]
  .rodata            const       0x5'c2c4     0x28  sober128.o [5]
  .rodata            const       0x5'c2ec     0x28  sprng.o [5]
  .rodata            const       0x5'c314     0x28  yarrow.o [5]
  .text              ro code     0x5'c33c     0x28  data_init.o [8]
  .rodata            const       0x5'c364     0x24  hxsc_crypto.o [1]
  .rodata            const       0x5'c388     0x24  hxsc_crypto.o [1]
  .rodata            const       0x5'c3ac     0x24  hxsc_crypto.o [1]
  .rodata            const       0x5'c3d0     0x24  hxsc_crypto.o [1]
  .rodata            const       0x5'c3f4     0x24  hxsc_crypto.o [1]
  .rodata            const       0x5'c418     0x24  hxsc_crypto.o [1]
  .rodata            const       0x5'c43c     0x24  xscanfsmall_nomb.o [2]
  .text              ro code     0x5'c460     0x22  fpinit_M.o [7]
  .iar.init_table    const       0x5'c484     0x20  - Linker created -
  .rodata            const       0x5'c4a4     0x20  card_applic_main.o [1]
  .rodata            const       0x5'c4c4     0x20  card_applic_main.o [1]
  .rodata            const       0x5'c4e4     0x20  card_applic_main.o [1]
  .rodata            const       0x5'c504     0x20  card_applic_main.o [1]
  .rodata            const       0x5'c524     0x20  hxsc_crypto.o [1]
  .rodata            const       0x5'c544     0x20  hxsc_crypto.o [1]
  .rodata            const       0x5'c564     0x20  hxsc_crypto.o [1]
  .rodata            const       0x5'c584     0x20  hxsc_crypto.o [1]
  .rodata            const       0x5'c5a4     0x20  hxsc_crypto.o [1]
  .rodata            const       0x5'c5c4     0x20  des.o [5]
  .rodata            const       0x5'c5e4     0x20  kasumi.o [5]
  .rodata            const       0x5'c604     0x20  twofish.o [5]
  .rodata            const       0x5'c624     0x20  pk_get_oid.o [5]
  .rodata            const       0x5'c644     0x20  bn_mp_kronecker.o [6]
  .rodata            const       0x5'c664     0x20  der_asn1_maps.o [5]
  .rodata            const       0x5'c684     0x20  der_decode_asn1_identifier.o [5]
  .text              ro code     0x5'c6a4     0x1e  startup_iar.o [1]
  .text              ro code     0x5'c6c2      0xc  cstartup_M.o [8]
  .text              ro code     0x5'c6d0     0x1e  cmain.o [8]
  .text              ro code     0x5'c6ee      0x4  exit.o [2]
  .text              ro code     0x5'c6f4      0xa  cexit.o [8]
  .rodata            const       0x5'c700     0x1c  card_applic_main.o [1]
  .rodata            const       0x5'c71c     0x1c  card_applic_main.o [1]
  .rodata            const       0x5'c738     0x1c  hxsc_crypto.o [1]
  .rodata            const       0x5'c754     0x1c  hxsc_crypto.o [1]
  .rodata            const       0x5'c770     0x1c  hxsc_crypto.o [1]
  .rodata            const       0x5'c78c     0x1c  hxsc_crypto.o [1]
  .rodata            const       0x5'c7a8     0x1c  hxsc_crypto.o [1]
  .rodata            const       0x5'c7c4     0x1c  skipjack.o [5]
  .rodata            const       0x5'c7e0     0x18  card_applic_main.o [1]
  .rodata            const       0x5'c7f8     0x18  card_applic_main.o [1]
  .rodata            const       0x5'c810     0x18  card_applic_main.o [1]
  .rodata            const       0x5'c828     0x18  ecc_find_curve.o [5]
  .rodata            const       0x5'c840     0x18  ecc_find_curve.o [5]
  .rodata            const       0x5'c858     0x18  ecc_find_curve.o [5]
  .rodata            const       0x5'c870     0x18  ecc_find_curve.o [5]
  .rodata            const       0x5'c888     0x18  ecc_find_curve.o [5]
  .rodata            const       0x5'c8a0     0x18  ecc_find_curve.o [5]
  .rodata            const       0x5'c8b8     0x18  ecc_find_curve.o [5]
  .rodata            const       0x5'c8d0     0x18  ecc_find_curve.o [5]
  .rodata            const       0x5'c8e8     0x18  ecc_find_curve.o [5]
  .rodata            const       0x5'c900     0x18  ecc_find_curve.o [5]
  .rodata            const       0x5'c918     0x18  ecc_find_curve.o [5]
  .rodata            const       0x5'c930     0x18  ecc_find_curve.o [5]
  .rodata            const       0x5'c948     0x18  ecc_find_curve.o [5]
  .rodata            const       0x5'c960     0x18  ecc_find_curve.o [5]
  .rodata            const       0x5'c978     0x18  ltm_desc.o [5]
  .rodata            const       0x5'c990     0x18  ecc.o [5]
  .rodata            const       0x5'c9a8     0x18  ecc.o [5]
  .rodata            const       0x5'c9c0     0x18  ecc.o [5]
  .rodata            const       0x5'c9d8     0x18  ecc.o [5]
  .rodata            const       0x5'c9f0     0x18  ecc.o [5]
  .rodata            const       0x5'ca08     0x18  ecc.o [5]
  .rodata            const       0x5'ca20     0x18  ecc.o [5]
  .rodata            const       0x5'ca38     0x18  ecc.o [5]
  .rodata            const       0x5'ca50     0x18  ecc.o [5]
  .rodata            const       0x5'ca68     0x18  ecc.o [5]
  .rodata            const       0x5'ca80     0x18  ecc.o [5]
  .rodata            const       0x5'ca98     0x18  ecc.o [5]
  .rodata            const       0x5'cab0     0x18  ecc.o [5]
  .rodata            const       0x5'cac8     0x18  ecc.o [5]
  .rodata            const       0x5'cae0     0x18  bn_mp_prime_is_prime.o [6]
  .rodata            const       0x5'caf8     0x18  bn_mp_prime_is_prime.o [6]
  .rodata            const       0x5'cb10     0x18  pk_get_oid.o [5]
  .rodata            const       0x5'cb28     0x14  am_util_stdio.o [1]
  .rodata            const       0x5'cb3c     0x14  card_applic_main.o [1]
  .rodata            const       0x5'cb50     0x14  card_applic_main.o [1]
  .rodata            const       0x5'cb64     0x14  card_applic_main.o [1]
  .rodata            const       0x5'cb78     0x14  ecc_find_curve.o [5]
  .rodata            const       0x5'cb8c     0x14  ecc_find_curve.o [5]
  .rodata            const       0x5'cba0     0x14  ecc_find_curve.o [5]
  .rodata            const       0x5'cbb4     0x14  ecc_find_curve.o [5]
  .rodata            const       0x5'cbc8     0x14  ecc_find_curve.o [5]
  .rodata            const       0x5'cbdc     0x14  ecc.o [5]
  .rodata            const       0x5'cbf0     0x14  ecc.o [5]
  .rodata            const       0x5'cc04     0x14  ecc.o [5]
  .rodata            const       0x5'cc18     0x14  ecc.o [5]
  .rodata            const       0x5'cc2c     0x14  ecc.o [5]
  .rodata            const       0x5'cc40     0x14  ecc_ssh_ecdsa_encode_name.o [5]
  .rodata            const       0x5'cc54     0x14  ecc_ssh_ecdsa_encode_name.o [5]
  .rodata            const       0x5'cc68     0x14  ecc_ssh_ecdsa_encode_name.o [5]
  .rodata            const       0x5'cc7c     0x14  ecc_ssh_ecdsa_encode_name.o [5]
  .rodata            const       0x5'cc90     0x14  blowfish.o [5]
  .rodata            const       0x5'cca4     0x14  blowfish.o [5]
  .rodata            const       0x5'ccb8     0x14  camellia.o [5]
  .rodata            const       0x5'cccc     0x14  camellia.o [5]
  .rodata            const       0x5'cce0     0x14  safer.o [5]
  .rodata            const       0x5'ccf4     0x14  safer.o [5]
  .rodata            const       0x5'cd08     0x14  safer.o [5]
  .rodata            const       0x5'cd1c     0x14  safer.o [5]
  .rodata            const       0x5'cd30     0x14  safer.o [5]
  .rodata            const       0x5'cd44     0x14  safer.o [5]
  .rodata            const       0x5'cd58     0x14  skipjack.o [5]
  .rodata            const       0x5'cd6c     0x14  skipjack.o [5]
  .rodata            const       0x5'cd80     0x14  chacha_setup.o [5]
  .rodata            const       0x5'cd94     0x14  chacha_setup.o [5]
  .rodata            const       0x5'cda8     0x14  pk_get_oid.o [5]
  .rodata            const       0x5'cdbc     0x14  pk_get_oid.o [5]
  .rodata            const       0x5'cdd0     0x14  pk_get_oid.o [5]
  .rodata            const       0x5'cde4     0x10  am_util_id.o [1]
  .rodata            const       0x5'cdf4     0x10  card_applic_main.o [1]
  .rodata            const       0x5'ce04     0x10  card_applic_main.o [1]
  .rodata            const       0x5'ce14     0x10  card_applic_main.o [1]
  .rodata            const       0x5'ce24     0x10  ecc_find_curve.o [5]
  .rodata            const       0x5'ce34     0x10  ecc_find_curve.o [5]
  .rodata            const       0x5'ce44     0x10  ecc_find_curve.o [5]
  .rodata            const       0x5'ce54     0x10  ecc_find_curve.o [5]
  .rodata            const       0x5'ce64     0x10  ecc_find_curve.o [5]
  .rodata            const       0x5'ce74     0x10  ecc_find_curve.o [5]
  .rodata            const       0x5'ce84     0x10  ecc_find_curve.o [5]
  .rodata            const       0x5'ce94     0x10  ecc_find_curve.o [5]
  .rodata            const       0x5'cea4     0x10  ecc_find_curve.o [5]
  .rodata            const       0x5'ceb4     0x10  ecc_find_curve.o [5]
  .rodata            const       0x5'cec4     0x10  ecc_find_curve.o [5]
  .rodata            const       0x5'ced4     0x10  ecc_find_curve.o [5]
  .rodata            const       0x5'cee4     0x10  ecc_find_curve.o [5]
  .rodata            const       0x5'cef4     0x10  ecc_find_curve.o [5]
  .rodata            const       0x5'cf04     0x10  ecc_find_curve.o [5]
  .rodata            const       0x5'cf14     0x10  ecc_sign_hash.o [5]
  .rodata            const       0x5'cf24     0x10  ecc.o [5]
  .rodata            const       0x5'cf34     0x10  ecc_ssh_ecdsa_encode_name.o [5]
  .rodata            const       0x5'cf44     0x10  ecc_ssh_ecdsa_encode_name.o [5]
  .rodata            const       0x5'cf54     0x10  ecc_ssh_ecdsa_encode_name.o [5]
  .rodata            const       0x5'cf64     0x10  anubis.o [5]
  .rodata            const       0x5'cf74     0x10  anubis.o [5]
  .rodata            const       0x5'cf84     0x10  cast5.o [5]
  .rodata            const       0x5'cf94     0x10  cast5.o [5]
  .rodata            const       0x5'cfa4     0x10  des.o [5]
  .rodata            const       0x5'cfb4     0x10  idea.o [5]
  .rodata            const       0x5'cfc4     0x10  idea.o [5]
  .rodata            const       0x5'cfd4     0x10  kasumi.o [5]
  .rodata            const       0x5'cfe4     0x10  kasumi.o [5]
  .rodata            const       0x5'cff4     0x10  khazad.o [5]
  .rodata            const       0x5'd004     0x10  khazad.o [5]
  .rodata            const       0x5'd014     0x10  kseed.o [5]
  .rodata            const       0x5'd024     0x10  kseed.o [5]
  .rodata            const       0x5'd034     0x10  multi2.o [5]
  .rodata            const       0x5'd044     0x10  multi2.o [5]
  .rodata            const       0x5'd054     0x10  multi2.o [5]
  .rodata            const       0x5'd064     0x10  noekeon.o [5]
  .rodata            const       0x5'd074     0x10  noekeon.o [5]
  .rodata            const       0x5'd084     0x10  safer.o [5]
  .rodata            const       0x5'd094     0x10  saferp.o [5]
  .rodata            const       0x5'd0a4     0x10  saferp.o [5]
  .rodata            const       0x5'd0b4     0x10  serpent.o [5]
  .rodata            const       0x5'd0c4     0x10  serpent.o [5]
  .rodata            const       0x5'd0d4     0x10  twofish.o [5]
  .rodata            const       0x5'd0e4     0x10  twofish.o [5]
  .rodata            const       0x5'd0f4     0x10  xtea.o [5]
  .rodata            const       0x5'd104     0x10  xtea.o [5]
  .rodata            const       0x5'd114     0x10  sober128.o [5]
  .rodata            const       0x5'd124      0xc  hxsc_crypto.o [1]
  .rodata            const       0x5'd130      0xc  ecc_find_curve.o [5]
  .rodata            const       0x5'd13c      0xc  ecc_find_curve.o [5]
  .rodata            const       0x5'd148      0xc  ecc_find_curve.o [5]
  .rodata            const       0x5'd154      0xc  ecc_find_curve.o [5]
  .rodata            const       0x5'd160      0xc  ecc_find_curve.o [5]
  .rodata            const       0x5'd16c      0xc  ecc_find_curve.o [5]
  .rodata            const       0x5'd178      0xc  ltm_desc.o [5]
  .rodata            const       0x5'd184      0xc  aes.o [5]
  .rodata            const       0x5'd190      0xc  aes.o [5]
  .rodata            const       0x5'd19c      0xc  aes.o [5]
  .rodata            const       0x5'd1a8      0xc  anubis.o [5]
  .rodata            const       0x5'd1b4      0xc  blowfish.o [5]
  .rodata            const       0x5'd1c0      0xc  camellia.o [5]
  .rodata            const       0x5'd1cc      0xc  khazad.o [5]
  .rodata            const       0x5'd1d8      0xc  rc5.o [5]
  .rodata            const       0x5'd1e4      0xc  rc5.o [5]
  .rodata            const       0x5'd1f0      0xc  rc6.o [5]
  .rodata            const       0x5'd1fc      0xc  rc6.o [5]
  .rodata            const       0x5'd208      0xc  safer.o [5]
  .rodata            const       0x5'd214      0xc  safer.o [5]
  .rodata            const       0x5'd220      0xc  safer.o [5]
  .rodata            const       0x5'd22c      0xc  safer.o [5]
  .rodata            const       0x5'd238      0xc  saferp.o [5]
  .rodata            const       0x5'd244      0xc  skipjack.o [5]
  .rodata            const       0x5'd250      0xc  chacha20.o [5]
  .rodata            const       0x5'd25c      0xc  chacha20.o [5]
  .rodata            const       0x5'd268      0xc  chacha20.o [5]
  .rodata            const       0x5'd274      0xc  chacha20.o [5]
  .rodata            const       0x5'd280      0xc  chacha20.o [5]
  .rodata            const       0x5'd28c      0xc  rc4.o [5]
  .rodata            const       0x5'd298      0xc  rc4.o [5]
  .rodata            const       0x5'd2a4      0xc  rc4.o [5]
  .rodata            const       0x5'd2b0      0xc  rc4.o [5]
  .rodata            const       0x5'd2bc      0xc  sober128.o [5]
  .rodata            const       0x5'd2c8      0xc  sober128.o [5]
  .rodata            const       0x5'd2d4      0xc  sober128.o [5]
  .rodata            const       0x5'd2e0      0xc  sober128.o [5]
  .rodata            const       0x5'd2ec      0xc  der_encode_generalizedtime.o [5]
  .rodata            const       0x5'd2f8      0xc  der_encode_utctime.o [5]
  .rodata            const       0x5'd304      0x8  am_util_id.o [1]
  .rodata            const       0x5'd30c      0x8  am_util_id.o [1]
  .rodata            const       0x5'd314      0x8  am_util_id.o [1]
  .rodata            const       0x5'd31c      0x8  am_util_id.o [1]
  .rodata            const       0x5'd324      0x8  am_util_id.o [1]
  .rodata            const       0x5'd32c      0x8  card_applic_main.o [1]
  .rodata            const       0x5'd334      0x8  card_applic_main.o [1]
  .rodata            const       0x5'd33c      0x8  hxsc_crypto.o [1]
  .rodata            const       0x5'd344      0x8  hxsc_crypto.o [1]
  .rodata            const       0x5'd34c      0x8  sha256.o [5]
  .rodata            const       0x5'd354      0x8  sha256.o [5]
  .rodata            const       0x5'd35c      0x8  anubis.o [5]
  .rodata            const       0x5'd364      0x8  cast5.o [5]
  .rodata            const       0x5'd36c      0x8  des.o [5]
  .rodata            const       0x5'd374      0x8  des.o [5]
  .rodata            const       0x5'd37c      0x8  idea.o [5]
  .rodata            const       0x5'd384      0x8  kasumi.o [5]
  .rodata            const       0x5'd38c      0x8  khazad.o [5]
  .rodata            const       0x5'd394      0x8  kseed.o [5]
  .rodata            const       0x5'd39c      0x8  multi2.o [5]
  .rodata            const       0x5'd3a4      0x8  noekeon.o [5]
  .rodata            const       0x5'd3ac      0x8  rc2.o [5]
  .rodata            const       0x5'd3b4      0x8  rc2.o [5]
  .rodata            const       0x5'd3bc      0x8  safer.o [5]
  .rodata            const       0x5'd3c4      0x8  safer.o [5]
  .rodata            const       0x5'd3cc      0x8  safer.o [5]
  .rodata            const       0x5'd3d4      0x8  safer.o [5]
  .rodata            const       0x5'd3dc      0x8  safer.o [5]
  .rodata            const       0x5'd3e4      0x8  safer.o [5]
  .rodata            const       0x5'd3ec      0x8  safer.o [5]
  .rodata            const       0x5'd3f4      0x8  safer.o [5]
  .rodata            const       0x5'd3fc      0x8  saferp.o [5]
  .rodata            const       0x5'd404      0x8  serpent.o [5]
  .rodata            const       0x5'd40c      0x8  twofish.o [5]
  .rodata            const       0x5'd414      0x8  xtea.o [5]
  .rodata            const       0x5'd41c      0x8  sha1.o [5]
  .rodata            const       0x5'd424      0x8  sha1.o [5]
  .rodata            const       0x5'd42c      0x8  fortuna.o [5]
  .rodata            const       0x5'd434      0x8  sprng.o [5]
  .rodata            const       0x5'd43c      0x8  yarrow.o [5]
  .rodata            const       0x5'd444      0x4  hxsc_crypto.o [1]
  .rodata            const       0x5'd448      0x4  am_hal_cachectrl.o [4]
  .rodata            const       0x5'd44c      0x4  am_hal_global.o [4]
  .rodata            const       0x5'd450      0x4  sha256.o [5]
  .rodata            const       0x5'd454      0x4  am_hal_gpio.o [4]
  .rodata            const       0x5'd458      0x4  am_hal_gpio.o [4]
  .rodata            const       0x5'd45c      0x4  am_bsp_pins.o [3]
  .rodata            const       0x5'd460      0x4  aes.o [5]
  .rodata            const       0x5'd464      0x4  des.o [5]
  .rodata            const       0x5'd468      0x4  des.o [5]
  .rodata            const       0x5'd46c      0x4  rc2.o [5]
  .rodata            const       0x5'd470      0x4  rc5.o [5]
  .rodata            const       0x5'd474      0x4  rc6.o [5]
  .rodata            const       0x5'd478      0x4  sha1.o [5]
  .rodata            const       0x5'd47c      0x4  rc4.o [5]
  .rodata            const       0x5'd480      0x4  sprng.o [5]
  .rodata            const       0x5'd484      0x4  chacha_setup.o [5]
  .rodata            const       0x5'd488      0x4  chacha_setup.o [5]
  .rodata            const       0x5'd48c      0x4  bn_mp_radix_smap.o [6]
  .rodata            const       0x5'd490      0x4  bn_mp_radix_smap.o [6]
  .rodata            const       0x5'd494      0x4  der_encode_generalizedtime.o [5]
  .rodata            const       0x5'd498      0x4  der_encode_utctime.o [5]
  .rodata            const       0x5'd49c      0x4  der_asn1_maps.o [5]
  .rodata            const       0x5'd4a0      0x4  der_asn1_maps.o [5]
  .rodata            const       0x5'd4a4      0x4  der_decode_asn1_identifier.o [5]
  .rodata            const       0x5'd4a8      0x0  zero_init3.o [8]
  .rodata            const       0x5'd4a8      0x0  packbits_init_single.o [8]
  Initializer bytes  const       0x5'd4a8    0x62f  <for P2-1>
                               - 0x5'dad7  0x519d7

"A1":                                       0x4000
  .noinit            uninit   0x1000'0000   0x4000  startup_iar.o [1]
                            - 0x1000'4000   0x4000

"P2", part 1 of 3:                           0x710
  P2-1                        0x1000'4000    0x710  <Init block>
    .data            inited   0x1000'4000    0x100  hxsc_crypto.o [1]
    .data            inited   0x1000'4100      0x4  hxsc_crypto.o [1]
    .data            inited   0x1000'4104    0x588  hxsc_crypto.o [1]
    .data            inited   0x1000'468c      0x4  hxsc_crypto.o [1]
    .data            inited   0x1000'4690     0x10  hxsc_crypto.o [1]
    .data            inited   0x1000'46a0     0x28  am_bsp.o [3]
    .data            inited   0x1000'46c8     0x30  am_hal_security.o [4]
    .data            inited   0x1000'46f8      0x4  bncore.o [6]
    .data            inited   0x1000'46fc      0x4  bncore.o [6]
    .data            inited   0x1000'4700      0x4  bncore.o [6]
    .data            inited   0x1000'4704      0x4  bncore.o [6]
    .data            inited   0x1000'4708      0x8  rand.o [2]
                            - 0x1000'4710    0x710

"P2", part 2 of 3:                          0x45e4
  .bss               zero     0x1000'4710   0x1ef0  hxsc_crypto.o [1]
  .bss               zero     0x1000'6600    0xdd0  crypt_hash_descriptor.o [5]
  .bss               zero     0x1000'73d0    0xdd0  crypt_cipher_descriptor.o [5]
  .bss               zero     0x1000'81a0    0x550  crypt_prng_descriptor.o [5]
  .bss               zero     0x1000'86f0    0x1d8  dlmalloc.o [2]
  .bss               zero     0x1000'88c8    0x100  am_util_stdio.o [1]
  .bss               zero     0x1000'89c8    0x100  hxsc_crypto.o [1]
  .bss               zero     0x1000'8ac8     0xd4  crypt_ltc_mp_descriptor.o [5]
  .bss               zero     0x1000'8b9c     0x84  rand.o [2]
  .bss               zero     0x1000'8c20     0x80  hxsc_crypto.o [1]
  .bss               zero     0x1000'8ca0     0x18  dlmalloc.o [2]
  .bss               zero     0x1000'8cb8      0x4  am_util_stdio.o [1]
  .bss               zero     0x1000'8cbc      0x4  card_applic_main.o [1]
  .bss               zero     0x1000'8cc0      0x4  hxsc_crypto.o [1]
  .bss               zero     0x1000'8cc4      0x4  hxsc_crypto.o [1]
  .bss               zero     0x1000'8cc8      0x4  hxsc_crypto.o [1]
  .bss               zero     0x1000'8ccc      0x4  hxsc_crypto.o [1]
  .bss               zero     0x1000'8cd0      0x4  hxsc_crypto.o [1]
  .bss               zero     0x1000'8cd4      0x4  hxsc_crypto.o [1]
  .bss               zero     0x1000'8cd8      0x4  am_bsp.o [3]
  .bss               zero     0x1000'8cdc      0x4  bn_mp_rand.o [6]
  .bss               zero     0x1000'8ce0      0x4  bn_mp_rand.o [6]
  .bss               zero     0x1000'8ce4      0x4  am_hal_reset.o [4]
  .bss               zero     0x1000'8ce8      0x4  xgetmemchunk.o [2]
  .bss               zero     0x1000'8cec      0x4  xfail_s.o [2]
  .bss               zero     0x1000'8cf0      0x1  am_util_stdio.o [1]
                            - 0x1000'8cf1   0x45e1

"P2", part 3 of 3:                             0x0
  HEAP                        0x1000'8cf8      0x0  <Block>

Unused ranges:

         From           To      Size
         ----           --      ----
     0x5'dad7     0xf'c000  0x9'e52a
  0x1000'8cf4  0x1000'8cf7       0x4
  0x1000'8cf8  0x1006'0000  0x5'7309


*******************************************************************************
*** INIT TABLE
***

          Address      Size
          -------      ----
Zero (__iar_zero_init3)
    1 destination range, total size 0x45e1:
          0x1000'4710  0x45e1

Copy/packbits (__iar_packbits_init_single3)
    1 source range, total size 0x62f (87% of destination):
             0x5'd4a8   0x62f
    1 destination range, total size 0x710:
          0x1000'4000   0x710



*******************************************************************************
*** MODULE SUMMARY
***

    Module                                 ro code  ro data  rw data
    ------                                 -------  -------  -------
command line/config:
    ----------------------------------------------------------------
    Total:

D:\ESSEK_WORKSPACES\evb_emb\harborxsmarcard\apollo3evb\iar\bin: [1]
    am_util_faultisr.o                         216
    am_util_id.o                               300       56
    am_util_stdio.o                          2 240       20      261
    card_applic_main.o                         504      656        4
    hxsc_crypto.o                            1 152    2 164   10 024
    startup_iar.o                               34      256   16 384
    ----------------------------------------------------------------
    Total:                                   4 446    3 152   26 673

dl7M_tln.a: [2]
    abort.o                                      6
    dlmalloc.o                               7 520               496
    exit.o                                       4
    heaptramp0.o                                 8
    iar_Stolx.o                                130
    iar_Stoulx.o                               330       80
    qsort.o                                  1 228
    rand.o                                     164        8      140
    snprintf.o                                  68
    sscanf.o                                    40
    toupper.o                                   12
    xfail_s.o                                   64                 4
    xgetmemchunk.o                              44                 4
    xprintftiny.o                              318
    xscanfsmall_nomb.o                       1 428       36
    xsnprout.o                                  26
    xsscin.o                                    30
    ----------------------------------------------------------------
    Total:                                  11 420      124      644

libam_bsp.a: [3]
    am_bsp.o                                   184       35       44
    am_bsp_pins.o                                         4
    ----------------------------------------------------------------
    Total:                                     184       39       44

libam_hal.a: [4]
    am_hal_cachectrl.o                          92        4
    am_hal_clkgen.o                            296
    am_hal_flash.o                              88       96
    am_hal_global.o                                      52
    am_hal_gpio.o                              936      364
    am_hal_interrupt.o                          20
    am_hal_itm.o                               232
    am_hal_mcuctrl.o                           468      128
    am_hal_pwrctrl.o                           172
    am_hal_reset.o                                                 4
    am_hal_rtc.o                                48
    am_hal_security.o                          200       42       48
    am_hal_tpiu.o                              180
    ----------------------------------------------------------------
    Total:                                   2 732      686       52

libtomcrypt.a: [5]
    aes.o                                    3 470   17 900
    anubis.o                                 2 340    7 440
    blowfish.o                               1 500    4 396
    camellia.o                              12 636    4 572
    cast5.o                                  4 304    8 444
    chacha20.o                               1 008      152
    chacha_crypt.o                           1 208
    chacha_done.o                               24
    chacha_ivctr64.o                            76
    chacha_keystream.o                          52
    chacha_setup.o                             332       48
    compare_testvector.o                        48
    crypt_cipher_descriptor.o                                  3 536
    crypt_cipher_is_valid.o                     36
    crypt_find_hash.o                           60
    crypt_find_prng.o                           60
    crypt_hash_descriptor.o                                    3 536
    crypt_hash_is_valid.o                       36
    crypt_inits.o                               52
    crypt_ltc_mp_descriptor.o                                    212
    crypt_prng_descriptor.o                                    1 360
    crypt_prng_is_valid.o                       36
    crypt_register_all_ciphers.o               256
    crypt_register_all_hashes.o                 28
    crypt_register_all_prngs.o                  68
    crypt_register_cipher.o                    112
    crypt_register_hash.o                      104
    crypt_register_prng.o                      104
    ctr_done.o                                  48
    ctr_encrypt.o                              436
    ctr_start.o                                336
    der_asn1_maps.o                                     120
    der_decode_asn1_identifier.o               344       36
    der_decode_asn1_length.o                   110
    der_decode_bit_string.o                    198
    der_decode_boolean.o                        52
    der_decode_choice.o                      1 070
    der_decode_custom_type.o                 2 128
    der_decode_generalizedtime.o               712
    der_decode_ia5_string.o                    162
    der_decode_integer.o                       188
    der_decode_object_identifier.o             252
    der_decode_octet_string.o                  144
    der_decode_printable_string.o              162
    der_decode_raw_bit_string.o                260
    der_decode_sequence_ex.o                    38
    der_decode_sequence_multi.o                318
    der_decode_short_integer.o                  72
    der_decode_teletex_string.o                162
    der_decode_utctime.o                       736
    der_decode_utf8_string.o                   252
    der_encode_asn1_identifier.o               328
    der_encode_asn1_length.o                   186
    der_encode_bit_string.o                    208
    der_encode_boolean.o                        44
    der_encode_custom_type.o                   840
    der_encode_generalizedtime.o               776       16
    der_encode_ia5_string.o                    138
    der_encode_integer.o                       460
    der_encode_object_identifier.o             368
    der_encode_octet_string.o                  126
    der_encode_printable_string.o              138
    der_encode_raw_bit_string.o                240
    der_encode_sequence_ex.o                   764
    der_encode_sequence_multi.o                352
    der_encode_set.o                           188
    der_encode_setof.o                         512
    der_encode_short_integer.o                 154
    der_encode_utctime.o                       660       16
    der_encode_utf8_string.o                   478
    der_length_asn1_identifier.o                18
    der_length_asn1_length.o                    18
    der_length_bit_string.o                     54
    der_length_boolean.o                        10
    der_length_custom_type.o                   682
    der_length_generalizedtime.o                58
    der_length_ia5_string.o                    150      816
    der_length_integer.o                       172
    der_length_object_identifier.o             200
    der_length_octet_string.o                   36
    der_length_printable_string.o              150      592
    der_length_sequence.o                      600
    der_length_short_integer.o                  80
    der_length_teletex_string.o                150      944
    der_length_utctime.o                        28
    der_length_utf8_string.o                   140
    des.o                                    2 302   35 936
    ecc.o                                             8 348
    ecc_find_curve.o                           372    1 336
    ecc_free.o                                  76
    ecc_get_oid_str.o                           24
    ecc_make_key.o                              88
    ecc_set_curve.o                            256
    ecc_set_curve_internal.o                   460
    ecc_set_key.o                              216
    ecc_sign_hash.o                          1 072       16
    ecc_ssh_ecdsa_encode_name.o                184      128
    fortuna.o                                1 262       48
    hash_memory.o                              176
    idea.o                                   1 364      304
    kasumi.o                                 1 168    2 896
    khazad.o                                 1 750   16 740
    kseed.o                                  2 616    4 496
    ltc_ecc_import_point.o                     424
    ltc_ecc_is_point.o                         308
    ltc_ecc_is_point_at_infinity.o             200
    ltc_ecc_map.o                              284
    ltc_ecc_mul2add.o                          960
    ltc_ecc_mulmod_timing.o                    848
    ltc_ecc_points.o                           236
    ltc_ecc_projective_add_point.o           1 660
    ltc_ecc_projective_dbl_point.o           1 344
    ltc_ecc_verify_key.o                       224
    ltm_desc.o                               1 150      248
    mem_neq.o                                   68
    multi.o                                    180
    multi2.o                                 1 226      280
    noekeon.o                                1 466      628
    pk_get_oid.o                                52      116
    pk_oid_cmp.o                               122
    pk_oid_str.o                               364
    pkcs_1_mgf1.o                              284
    pkcs_1_oaep_decode.o                       624
    pkcs_1_v1_5_decode.o                       244
    rand_bn.o                                  244
    rand_prime.o                               248
    rc2.o                                    1 316      660
    rc4.o                                    1 052      144
    rc4_stream.o                               302
    rc5.o                                    1 504      428
    rc6.o                                    2 488      512
    rng_get_bytes.o                            110
    rng_make_prng.o                            228
    rsa_decrypt_key.o                          236
    rsa_exptmod.o                              768
    rsa_free.o                                  56
    rsa_import.o                               600
    rsa_make_key.o                             600
    safer.o                                  2 468    1 176
    saferp.o                                41 114    1 400
    serpent.o                                6 488      756
    sha1.o                                   1 692      232
    sha256.o                                10 436      256
    skipjack.o                               1 172      520
    sober128.o                                 988      156
    sober128_stream.o                        3 984    2 048
    sprng.o                                    180       52
    ssh_encode_sequence_multi.o                744
    twofish.o                                3 614    4 988
    x509_decode_subject_public_key_info.o      614
    xtea.o                                     974      464
    yarrow.o                                   664       48
    zeromem.o                                   20
    ----------------------------------------------------------------
    Total:                                 156 194  130 852    8 644

libtommath.a: [6]
    bn_fast_mp_invmod.o                        578
    bn_fast_mp_montgomery_reduce.o             398
    bn_fast_s_mp_mul_digs.o                    242
    bn_fast_s_mp_mul_high_digs.o               242
    bn_fast_s_mp_sqr.o                         352
    bn_mp_2expt.o                               78
    bn_mp_abs.o                                 30
    bn_mp_add.o                                 80
    bn_mp_add_d.o                              242
    bn_mp_addmod.o                              78
    bn_mp_clamp.o                               42
    bn_mp_clear.o                               54
    bn_mp_clear_multi.o                         26
    bn_mp_cmp.o                                 52
    bn_mp_cmp_d.o                               52
    bn_mp_cmp_mag.o                             96
    bn_mp_cnt_lsb.o                             72       64
    bn_mp_copy.o                                92
    bn_mp_count_bits.o                          44
    bn_mp_div.o                                948
    bn_mp_div_2.o                              134
    bn_mp_div_2d.o                             178
    bn_mp_div_3.o                              220
    bn_mp_div_d.o                              348
    bn_mp_dr_is_modulus.o                       44
    bn_mp_dr_reduce.o                          170
    bn_mp_dr_setup.o                            12
    bn_mp_exch.o                                42
    bn_mp_exptmod.o                            258
    bn_mp_exptmod_fast.o                     1 004
    bn_mp_gcd.o                                308
    bn_mp_get_bit.o                             78
    bn_mp_get_int.o                             52
    bn_mp_grow.o                                72
    bn_mp_init.o                                58
    bn_mp_init_copy.o                           46
    bn_mp_init_multi.o                          68
    bn_mp_init_set.o                            34
    bn_mp_init_set_int.o                        30
    bn_mp_init_size.o                           72
    bn_mp_invmod.o                              78
    bn_mp_invmod_slow.o                        778
    bn_mp_is_square.o                          348      236
    bn_mp_jacobi.o                              50
    bn_mp_karatsuba_mul.o                      486
    bn_mp_karatsuba_sqr.o                      336
    bn_mp_kronecker.o                          416       32
    bn_mp_lcm.o                                142
    bn_mp_lshd.o                               132
    bn_mp_mod.o                                104
    bn_mp_mod_2d.o                             154
    bn_mp_mod_d.o                               12
    bn_mp_montgomery_calc_normalization.o      130
    bn_mp_montgomery_reduce.o                  264
    bn_mp_montgomery_setup.o                    66
    bn_mp_mul.o                                156
    bn_mp_mul_2.o                              130
    bn_mp_mul_2d.o                             192
    bn_mp_mul_d.o                              140
    bn_mp_mulmod.o                              80
    bn_mp_neg.o                                 56
    bn_mp_prime_is_divisible.o                  68
    bn_mp_prime_is_prime.o                     684       48
    bn_mp_prime_miller_rabin.o                 264
    bn_mp_prime_strong_lucas_selfridge.o     1 352
    bn_mp_radix_smap.o                                  164
    bn_mp_rand.o                               210                 8
    bn_mp_read_radix.o                         196
    bn_mp_read_unsigned_bin.o                   98
    bn_mp_reduce.o                             244
    bn_mp_reduce_2k.o                          142
    bn_mp_reduce_2k_l.o                        136
    bn_mp_reduce_2k_setup.o                     96
    bn_mp_reduce_2k_setup_l.o                   68
    bn_mp_reduce_is_2k.o                        80
    bn_mp_reduce_is_2k_l.o                      84
    bn_mp_reduce_setup.o                        42
    bn_mp_rshd.o                                72
    bn_mp_set.o                                 38
    bn_mp_set_int.o                             72
    bn_mp_set_long.o                            72
    bn_mp_sqr.o                                 88
    bn_mp_sqrmod.o                              72
    bn_mp_sqrt.o                               220
    bn_mp_sqrtmod_prime.o                      786
    bn_mp_sub.o                                 82
    bn_mp_sub_d.o                              236
    bn_mp_submod.o                              78
    bn_mp_to_unsigned_bin.o                     86
    bn_mp_toom_mul.o                         1 210
    bn_mp_toom_sqr.o                           896
    bn_mp_toradix.o                            164
    bn_mp_unsigned_bin_size.o                   32
    bn_mp_zero.o                                30
    bn_prime_tab.o                                    1 024
    bn_reverse.o                                28
    bn_s_mp_add.o                              200
    bn_s_mp_exptmod.o                          880
    bn_s_mp_mul_digs.o                         232
    bn_s_mp_mul_high_digs.o                    238
    bn_s_mp_sqr.o                              258
    bn_s_mp_sub.o                              168
    bncore.o                                             14       16
    ----------------------------------------------------------------
    Total:                                  21 278    1 582       24

m7M_tls.a: [7]
    DblToFlt.o                                 104
    fpinit_M.o                                  34
    ----------------------------------------------------------------
    Total:                                     138

rt7M_tl.a: [8]
    ABImemclr.o                                  6
    ABImemclr4.o                                 6
    ABImemcpy_unaligned.o                      118
    ABImemmove_unaligned.o                     120
    ABImemset.o                                102
    ABImemset48.o                               50
    I64DivMod.o                                560
    I64DivZer.o                                  2
    U64Shr.o                                    30
    cexit.o                                     10
    cmain.o                                     30
    cstartup_M.o                                12
    data_init.o                                 40
    memchr.o                                    88
    memcmp_unaligned.o                          98
    packbits_init_single.o                      56
    strchr.o                                    22
    strcmp.o                                    18
    strlen.o                                    54
    strncpy_unaligned.o                        108
    zero_init3.o                                58
    ----------------------------------------------------------------
    Total:                                   1 588

shb_l.a: [9]
    clock.o                                     10
    exit.o                                      20
    ----------------------------------------------------------------
    Total:                                      30

    Gaps                                        62       12
    Linker created                                       32
--------------------------------------------------------------------
    Grand Total:                           198 072  136 479   36 081


*******************************************************************************
*** ENTRY LIST
***

Entry                       Address    Size  Type      Object
-----                       -------    ----  ----      ------
.iar.init_table$$Base      0x5'c484           --   Gb  - Linker created -
.iar.init_table$$Limit     0x5'c4a4           --   Gb  - Linker created -
?main                      0x5'c6d1          Code  Gb  cmain.o [8]
BYTE2WORD                  0x2'a5fd    0x18  Code  Lc  sober128_stream.o [5]
F                          0x1'e281    0x8c  Code  Lc  camellia.o [5]
FI                         0x2'808f    0x54  Code  Lc  cast5.o [5]
FI                         0x4'490d    0x46  Code  Lc  kasumi.o [5]
FI::S7                     0x5'5e2c   0x200  Data  Lc  kasumi.o [5]
FI::S9                     0x3'8c28   0x800  Data  Lc  kasumi.o [5]
FII                        0x2'80e3    0x56  Code  Lc  cast5.o [5]
FIII                       0x2'8139    0x54  Code  Lc  cast5.o [5]
FL                         0x4'49c5    0x38  Code  Lc  kasumi.o [5]
FLASHBASE$$Base              0xc000           --   Gb  - Linker created -
FLASHBASE$$Limit             0xc100           --   Gb  - Linker created -
FO                         0x4'4953    0x72  Code  Lc  kasumi.o [5]
HEAP$$Base              0x1000'8cf8           --   Gb  - Linker created -
HEAP$$Limit             0x1000'8cf8           --   Gb  - Linker created -
HardFault_Handler          0x5'82d5    0x1c  Code  Gb  am_util_faultisr.o [1]
KARATSUBA_MUL_CUTOFF    0x1000'46f8     0x4  Data  Gb  bncore.o [6]
KARATSUBA_SQR_CUTOFF    0x1000'46fc     0x4  Data  Gb  bncore.o [6]
KCi                        0x5'b528    0x40  Data  Lc  kseed.o [5]
Multab                     0x5'1ba8   0x400  Data  Lc  sober128_stream.o [5]
ORIG_P                     0x5'ab88    0x48  Data  Lc  blowfish.o [5]
ORIG_S                     0x2'85fc  0x1000  Data  Lc  blowfish.o [5]
RC                         0x5'b0a0    0x44  Data  Lc  noekeon.o [5]
RS                         0x5'c604    0x20  Data  Lc  twofish.o [5]
Region$$Table$$Base        0x5'c484           --   Gb  - Linker created -
Region$$Table$$Limit       0x5'c4a4           --   Gb  - Linker created -
Reset_Handler              0x5'c6b9     0x6  Code  Gb  startup_iar.o [1]
S1                         0x4'eba8   0x400  Data  Lc  cast5.o [5]
S2                         0x4'efa8   0x400  Data  Lc  cast5.o [5]
S3                         0x4'f3a8   0x400  Data  Lc  cast5.o [5]
S4                         0x4'f7a8   0x400  Data  Lc  cast5.o [5]
S5                         0x4'fba8   0x400  Data  Lc  cast5.o [5]
S6                         0x4'ffa8   0x400  Data  Lc  cast5.o [5]
S7                         0x5'03a8   0x400  Data  Lc  cast5.o [5]
S8                         0x5'07a8   0x400  Data  Lc  cast5.o [5]
SBOX                       0x5'602c   0x200  Data  Lc  twofish.o [5]
SP0222                     0x4'dfa8   0x400  Data  Lc  camellia.o [5]
SP1                        0x5'7200   0x100  Data  Lc  des.o [5]
SP1110                     0x4'dba8   0x400  Data  Lc  camellia.o [5]
SP2                        0x5'7300   0x100  Data  Lc  des.o [5]
SP3                        0x5'7400   0x100  Data  Lc  des.o [5]
SP3033                     0x4'e3a8   0x400  Data  Lc  camellia.o [5]
SP4                        0x5'7500   0x100  Data  Lc  des.o [5]
SP4404                     0x4'e7a8   0x400  Data  Lc  camellia.o [5]
SP5                        0x5'7600   0x100  Data  Lc  des.o [5]
SP6                        0x5'7700   0x100  Data  Lc  des.o [5]
SP7                        0x5'7800   0x100  Data  Lc  des.o [5]
SP8                        0x5'7900   0x100  Data  Lc  des.o [5]
SS0                        0x5'0ba8   0x400  Data  Lc  kseed.o [5]
SS1                        0x5'0fa8   0x400  Data  Lc  kseed.o [5]
SS2                        0x5'13a8   0x400  Data  Lc  kseed.o [5]
SS3                        0x5'17a8   0x400  Data  Lc  kseed.o [5]
Safer_Expand_Userkey       0x2'e52d   0x1e6  Code  Lc  safer.o [5]
Sbox                       0x5'1fa8   0x400  Data  Lc  sober128_stream.o [5]
T0                         0x4'c3a8   0x400  Data  Lc  anubis.o [5]
T0                         0x3'9428   0x800  Data  Lc  khazad.o [5]
T1                         0x4'c7a8   0x400  Data  Lc  anubis.o [5]
T1                         0x3'9c28   0x800  Data  Lc  khazad.o [5]
T2                         0x4'cba8   0x400  Data  Lc  anubis.o [5]
T2                         0x3'a428   0x800  Data  Lc  khazad.o [5]
T3                         0x4'cfa8   0x400  Data  Lc  anubis.o [5]
T3                         0x3'ac28   0x800  Data  Lc  khazad.o [5]
T4                         0x4'd3a8   0x400  Data  Lc  anubis.o [5]
T4                         0x3'b428   0x800  Data  Lc  khazad.o [5]
T5                         0x4'd7a8   0x400  Data  Lc  anubis.o [5]
T5                         0x3'bc28   0x800  Data  Lc  khazad.o [5]
T6                         0x3'c428   0x800  Data  Lc  khazad.o [5]
T7                         0x3'cc28   0x800  Data  Lc  khazad.o [5]
TD0                        0x4'83a8   0x400  Data  Lc  aes.o [5]
TD1                        0x4'a7a8   0x400  Data  Lc  aes.o [5]
TD2                        0x4'aba8   0x400  Data  Lc  aes.o [5]
TD3                        0x4'afa8   0x400  Data  Lc  aes.o [5]
TE0                        0x4'7fa8   0x400  Data  Lc  aes.o [5]
TE1                        0x4'8ba8   0x400  Data  Lc  aes.o [5]
TE2                        0x4'8fa8   0x400  Data  Lc  aes.o [5]
TE3                        0x4'93a8   0x400  Data  Lc  aes.o [5]
TOOM_MUL_CUTOFF         0x1000'4700     0x4  Data  Gb  bncore.o [6]
TOOM_SQR_CUTOFF         0x1000'4704     0x4  Data  Gb  bncore.o [6]
Td4                        0x4'87a8   0x400  Data  Lc  aes.o [5]
Te4_0                      0x4'97a8   0x400  Data  Lc  aes.o [5]
Te4_1                      0x4'9ba8   0x400  Data  Lc  aes.o [5]
Te4_2                      0x4'9fa8   0x400  Data  Lc  aes.o [5]
Te4_3                      0x4'a3a8   0x400  Data  Lc  aes.o [5]
Tks0                       0x4'b3a8   0x400  Data  Lc  aes.o [5]
Tks1                       0x4'b7a8   0x400  Data  Lc  aes.o [5]
Tks2                       0x4'bba8   0x400  Data  Lc  aes.o [5]
Tks3                       0x4'bfa8   0x400  Data  Lc  aes.o [5]
XORWORD                    0x2'a615    0x3c  Code  Lc  sober128_stream.o [5]
_GetN                      0x3'5899    0x22  Code  Lc  xscanfsmall_nomb.o [2]
_GetintSmallNoMb           0x3'5be5   0x1f0  Code  Lc  xscanfsmall_nomb.o [2]
_GetstrSmallNoMb           0x3'5ae5    0xfc  Code  Lc  xscanfsmall_nomb.o [2]
_PrintfTiny                0x3'8565   0x126  Code  Gb  xprintftiny.o [2]
_Rand_idx               0x1000'8c1c     0x4  Data  Lc  rand.o [2]
_Rand_rv                0x1000'8b9c    0x80  Data  Lc  rand.o [2]
_Randinit               0x1000'4708     0x1  Data  Gb  rand.o [2]
_Randseed               0x1000'470c     0x4  Data  Gb  rand.o [2]
_SNProut                   0x1'6267    0x1a  Code  Gb  xsnprout.o [2]
_SScin                     0x2'3d2b    0x1e  Code  Gb  xsscin.o [2]
_ScanfSmallNoMb            0x3'58d5   0x20a  Code  Gb  xscanfsmall_nomb.o [2]
_UngetN                    0x3'58bb    0x1a  Code  Lc  xscanfsmall_nomb.o [2]
__Patchable                  0xc0c0    0x40  Data  Gb  startup_iar.o [1]
__aeabi_d2f                0x3'09b5          Code  Gb  DblToFlt.o [7]
__aeabi_ldiv0              0x4'30dd          Code  Gb  I64DivZer.o [8]
__aeabi_llsr               0x3'6f3d          Code  Gb  U64Shr.o [8]
__aeabi_memclr             0x2'5b15          Code  Gb  ABImemclr.o [8]
__aeabi_memclr4            0x2'74f1          Code  Gb  ABImemclr4.o [8]
__aeabi_memset             0x2'5b31          Code  Gb  ABImemset.o [8]
__aeabi_uldivmod           0x4'2ead          Code  Gb  I64DivMod.o [8]
__cmain                    0x5'c6d1          Code  Gb  cmain.o [8]
__data_GetMemChunk         0x2'5ae9    0x2c  Code  Gb  xgetmemchunk.o [2]
__data_GetMemChunk::start
                        0x1000'8ce8     0x4  Data  Lc  xgetmemchunk.o [2]
__exit                     0x2'5b1d    0x14  Code  Gb  exit.o [9]
__iar_Fail_s               0x3'6d2d    0x1c  Code  Gb  xfail_s.o [2]
__iar_Memchr               0x3'868d          Code  Gb  memchr.o [8]
__iar_Memset               0x2'5b31          Code  Gb  ABImemset.o [8]
__iar_Memset4_word         0x2'74f9          Code  Gb  ABImemset48.o [8]
__iar_Memset8_word         0x2'74f9          Code  Gb  ABImemset48.o [8]
__iar_Memset_word          0x2'5b39          Code  Gb  ABImemset.o [8]
__iar_Stolx                0x3'6d6d    0x7e  Code  Gb  iar_Stolx.o [2]
__iar_Stoulx               0x3'6df1   0x13e  Code  Gb  iar_Stoulx.o [2]
__iar_Strchr               0x3'6d15          Code  Gb  strchr.o [8]
__iar_data_init3           0x5'c33d    0x28  Code  Gb  data_init.o [8]
__iar_dlcalloc             0x2'56fb    0x3e  Code  Gb  dlmalloc.o [2]
__iar_dlfree               0x2'5205   0x4f6  Code  Gb  dlmalloc.o [2]
__iar_dlmalloc             0x2'4f4f   0x2b6  Code  Gb  dlmalloc.o [2]
__iar_dlrealloc            0x2'5a55    0x7c  Code  Gb  dlmalloc.o [2]
__iar_init_vfp             0x5'c461          Code  Gb  fpinit_M.o [7]
__iar_packbits_init_single3
                           0x5'b8b1    0x38  Code  Gb  packbits_init_single.o [8]
__iar_program_start        0x5'c6c3          Code  Gb  cstartup_M.o [8]
__iar_unaligned_memcmp     0x1'6205          Code  Gb  memcmp_unaligned.o [8]
__iar_unaligned_memcpy     0x2'3cb5          Code  Gb  ABImemcpy_unaligned.o [8]
__iar_unaligned_memcpy4
                           0x2'3cd5          Code  Gb  ABImemcpy_unaligned.o [8]
__iar_unaligned_memcpy8
                           0x2'3cd5          Code  Gb  ABImemcpy_unaligned.o [8]
__iar_unaligned_memmove
                           0x3'8bb1          Code  Gb  ABImemmove_unaligned.o [8]
__iar_unaligned_memmove4
                           0x3'8bb1          Code  Gb  ABImemmove_unaligned.o [8]
__iar_unaligned_memmove8
                           0x3'8bb1          Code  Gb  ABImemmove_unaligned.o [8]
__iar_unaligned_strncpy
                           0x3'6ca9          Code  Gb  strncpy_unaligned.o [8]
__iar_zero_init3           0x1'61cb    0x3a  Code  Gb  zero_init3.o [8]
__low_level_init           0x5'c6a5     0xa  Code  Gb  startup_iar.o [1]
__vector_table               0xc000    0xc0  Data  Gb  startup_iar.o [1]
_add_inv                   0x3'ff2b     0x8  Code  Lc  idea.o [5]
_call_main                 0x5'c6dd          Code  Gb  cmain.o [8]
_chacha_block              0x4'3fbf   0x3a6  Code  Lc  chacha_crypt.o [5]
_char_to_int               0x3'277b    0x56  Code  Lc  der_decode_generalizedtime.o [5]
_char_to_int               0x3'249b    0x56  Code  Lc  der_decode_utctime.o [5]
_ctr_encrypt               0x5'4d31    0xc0  Code  Lc  ctr_encrypt.o [5]
_curve_names               0x5'59d0   0x24c  Data  Lc  ecc_find_curve.o [5]
_dec_block                 0x2'6ab9   0x8e0  Code  Lc  serpent.o [5]
_der_decode_sequence_va
                           0x3'46ff   0x11c  Code  Lc  der_decode_sequence_multi.o [5]
_ecc_cmp_hex_bn            0x3'5005    0x30  Code  Lc  ecc_set_curve_internal.o [5]
_ecc_oid_lookup            0x3'5035    0xa4  Code  Lc  ecc_set_curve_internal.o [5]
_enc_block                 0x2'6165   0x954  Code  Lc  serpent.o [5]
_exit                      0x5'c6f5          Code  Gb  cexit.o [8]
_fortuna_add               0x4'388d    0x72  Code  Lc  fortuna.o [5]
_fortuna_reseed            0x4'3621   0x148  Code  Lc  fortuna.o [5]
_fortuna_update_iv         0x4'3605    0x1c  Code  Lc  fortuna.o [5]
_gm_                    0x1000'86f0   0x1d8  Data  Lc  dlmalloc.o [2]
_ltc_to_asn1               0x3'7f49     0xa  Code  Lc  der_encode_set.o [5]
_main                      0x5'c6eb          Code  Gb  cmain.o [8]
_mul_inv                   0x3'fed1    0x5a  Code  Lc  idea.o [5]
_name_match                0x3'39d5    0xa2  Code  Lc  ecc_find_curve.o [5]
_process_block             0x4'0111   0x1f6  Code  Lc  idea.o [5]
_qsort_helper              0x3'7f53    0x32  Code  Lc  der_encode_set.o [5]
_qsort_helper              0x3'8005    0x84  Code  Lc  der_encode_setof.o [5]
_rng_ansic                 0x3'437b    0x34  Code  Lc  rng_get_bytes.o [5]
_rng_nix                   0x3'4375     0x6  Code  Lc  rng_get_bytes.o [5]
_setup_key                 0x3'ff33   0x1de  Code  Lc  idea.o [5]
_setup_key                 0x2'5b99   0x5c8  Code  Lc  serpent.o [5]
abort                      0x2'5ae1     0x6  Code  Gb  abort.o [2]
add                        0x4'4f87    0x18  Code  Lc  ltm_desc.o [5]
add_segment                0x2'4149   0x1f2  Code  Lc  dlmalloc.o [2]
addi                       0x4'4f9f    0x18  Code  Lc  ltm_desc.o [5]
addmod                     0x4'50cb    0x1c  Code  Lc  ltm_desc.o [5]
adjust_heap                0x3'8843    0x86  Code  Lc  qsort.o [2]
aes_desc                   0x5'971c    0x68  Data  Gb  aes.o [5]
am_bsp_itm_printf_disable
                           0x5'662b    0x1a  Code  Gb  am_bsp.o [3]
am_bsp_itm_printf_enable
                           0x5'65f7    0x34  Code  Gb  am_bsp.o [3]
am_bsp_low_power_init      0x5'65a9    0x4e  Code  Gb  am_bsp.o [3]
am_bsp_psLEDs           0x1000'46a0    0x28  Data  Gb  am_bsp.o [3]
am_default_isr             0x5'c6bf     0x2  Code  Lc  startup_iar.o [1]
am_hal_cachectrl_config
                           0x5'654d    0x4a  Code  Gb  am_hal_cachectrl.o [4]
am_hal_cachectrl_defaults
                           0x5'd448     0x4  Data  Gb  am_hal_cachectrl.o [4]
am_hal_cachectrl_enable
                           0x5'6597     0xe  Code  Gb  am_hal_cachectrl.o [4]
am_hal_clkgen_control      0x5'6425    0xcc  Code  Gb  am_hal_clkgen.o [4]
am_hal_clkgen_status_get
                           0x5'64f1    0x32  Code  Gb  am_hal_clkgen.o [4]
am_hal_flash_delay         0x5'6ca1    0x10  Code  Gb  am_hal_flash.o [4]
am_hal_flash_delay_status_check
                           0x5'6cb1    0x44  Code  Gb  am_hal_flash.o [4]
am_hal_gpio_pinconfig      0x5'3cab   0x2a2  Code  Gb  am_hal_gpio.o [4]
am_hal_gpio_state_write
                           0x5'3f4d    0xa2  Code  Gb  am_hal_gpio.o [4]
am_hal_interrupt_master_disable
                           0x5'4041     0xa  Code  Gb  am_hal_interrupt.o [4]
am_hal_interrupt_master_set
                           0x5'404d     0x8  Code  Gb  am_hal_interrupt.o [4]
am_hal_itm_disable         0x5'695d    0x50  Code  Gb  am_hal_itm.o [4]
am_hal_itm_enable          0x5'6931    0x2c  Code  Gb  am_hal_itm.o [4]
am_hal_itm_not_busy        0x5'69ad    0x14  Code  Gb  am_hal_itm.o [4]
am_hal_itm_print           0x5'69f5    0x24  Code  Gb  am_hal_itm.o [4]
am_hal_itm_stimulus_reg_byte_write
                           0x5'69e5    0x10  Code  Gb  am_hal_itm.o [4]
am_hal_mcuctrl_info_get
                           0x5'6bd1    0x76  Code  Gb  am_hal_mcuctrl.o [4]
am_hal_pwrctrl_low_power_init
                           0x5'6855    0x86  Code  Gb  am_hal_pwrctrl.o [4]
am_hal_rtc_osc_disable     0x5'691d     0xc  Code  Gb  am_hal_rtc.o [4]
am_hal_rtc_osc_select      0x5'6901    0x1c  Code  Gb  am_hal_rtc.o [4]
am_hal_security_get_info
                           0x5'678d    0xb6  Code  Gb  am_hal_security.o [4]
am_hal_tpiu_enable         0x5'6a19    0x92  Code  Gb  am_hal_tpiu.o [4]
am_util_faultisr_collect_data
                           0x5'82fb    0xa8  Code  Gb  am_util_faultisr.o [1]
am_util_id_device          0x5'6661   0x12c  Code  Gb  am_util_id.o [1]
am_util_stdio_printf       0x3'0957    0x36  Code  Gb  am_util_stdio.o [1]
am_util_stdio_printf_init
                           0x3'00f5     0x8  Code  Gb  am_util_stdio.o [1]
am_util_stdio_sprintf      0x3'093d    0x1a  Code  Gb  am_util_stdio.o [1]
am_util_stdio_terminal_clear
                           0x3'098d     0xa  Code  Gb  am_util_stdio.o [1]
am_util_stdio_vsprintf     0x3'051b   0x422  Code  Gb  am_util_stdio.o [1]
anubis_crypt               0x2'f321   0x328  Code  Lc  anubis.o [5]
anubis_desc                0x5'9784    0x68  Data  Gb  anubis.o [5]
anubis_done                0x2'f795     0x2  Code  Gb  anubis.o [5]
anubis_ecb_decrypt         0x2'f663    0x1a  Code  Gb  anubis.o [5]
anubis_ecb_encrypt         0x2'f649    0x1a  Code  Gb  anubis.o [5]
anubis_keysize             0x2'f797    0x5e  Code  Gb  anubis.o [5]
anubis_setup               0x2'eed1   0x450  Code  Gb  anubis.o [5]
anubis_test                0x2'f67d    0xea  Code  Gb  anubis.o [5]
anubis_test::tests         0x4'7634   0x428  Data  Lc  anubis.o [5]
baseten                    0x5'd494     0x4  Data  Lc  der_encode_generalizedtime.o [5]
baseten                    0x5'd498     0x4  Data  Lc  der_encode_utctime.o [5]
bigbyte                    0x5'a5f4    0x60  Data  Lc  des.o [5]
blowfish_desc              0x5'97ec    0x68  Data  Gb  blowfish.o [5]
blowfish_done              0x3'f8f9     0x2  Code  Gb  blowfish.o [5]
blowfish_ecb_decrypt       0x3'f669   0x18c  Code  Gb  blowfish.o [5]
blowfish_ecb_encrypt       0x3'f4c9   0x1a0  Code  Gb  blowfish.o [5]
blowfish_keysize           0x3'f8fb    0x1a  Code  Gb  blowfish.o [5]
blowfish_setup             0x3'f339   0x190  Code  Gb  blowfish.o [5]
blowfish_test              0x3'f7f5    0xee  Code  Gb  blowfish.o [5]
blowfish_test::tests       0x5'abd0    0x48  Data  Lc  blowfish.o [5]
bn_reverse                 0x4'623f    0x1c  Code  Gb  bn_reverse.o [6]
bytebit                    0x5'c5c4    0x20  Data  Lc  des.o [5]
c                          0x5'ac18    0x48  Data  Lc  khazad.o [5]
camellia_desc              0x5'9854    0x68  Data  Gb  camellia.o [5]
camellia_done              0x2'13ad     0x2  Code  Gb  camellia.o [5]
camellia_ecb_decrypt       0x2'0d47   0x586  Code  Gb  camellia.o [5]
camellia_ecb_encrypt       0x2'07c3   0x584  Code  Gb  camellia.o [5]
camellia_keysize           0x2'13af    0x2e  Code  Gb  camellia.o [5]
camellia_setup             0x1'e355  0x246e  Code  Gb  camellia.o [5]
camellia_test              0x2'12cd    0xd2  Code  Gb  camellia.o [5]
camellia_test::tests       0x5'70f0   0x110  Data  Lc  camellia.o [5]
cast5_desc                 0x5'98bc    0x68  Data  Gb  cast5.o [5]
cast5_done                 0x2'85e1     0x2  Code  Gb  cast5.o [5]
cast5_ecb_decrypt          0x2'8339   0x196  Code  Gb  cast5.o [5]
cast5_ecb_encrypt          0x2'819d   0x19c  Code  Gb  cast5.o [5]
cast5_keysize              0x2'85e3    0x1a  Code  Gb  cast5.o [5]
cast5_setup                0x2'752d   0xb62  Code  Gb  cast5.o [5]
cast5_test                 0x2'84cf    0xf6  Code  Gb  cast5.o [5]
cast5_test::tests          0x5'9574    0x6c  Data  Lc  cast5.o [5]
chacha20_prng_add_entropy
                           0x5'27d1    0xc6  Code  Gb  chacha20.o [5]
chacha20_prng_desc         0x5'c24c    0x28  Data  Gb  chacha20.o [5]
chacha20_prng_done         0x5'293b    0x14  Code  Gb  chacha20.o [5]
chacha20_prng_export       0x5'294f    0x30  Code  Gb  chacha20.o [5]
chacha20_prng_import       0x5'297f    0x3c  Code  Gb  chacha20.o [5]
chacha20_prng_read         0x5'28fd    0x3e  Code  Gb  chacha20.o [5]
chacha20_prng_ready        0x5'2897    0x66  Code  Gb  chacha20.o [5]
chacha20_prng_start        0x5'27a9    0x28  Code  Gb  chacha20.o [5]
chacha20_prng_test         0x5'29bb   0x1c4  Code  Gb  chacha20.o [5]
chacha_crypt               0x4'4365   0x112  Code  Gb  chacha_crypt.o [5]
chacha_done                0x5'2d65    0x18  Code  Gb  chacha_done.o [5]
chacha_ivctr64             0x5'2d19    0x4c  Code  Gb  chacha_ivctr64.o [5]
chacha_keystream           0x5'2b99    0x34  Code  Gb  chacha_keystream.o [5]
chacha_setup               0x5'2bcd   0x14c  Code  Gb  chacha_setup.o [5]
cipher_descriptor       0x1000'73d0   0xdd0  Data  Gb  crypt_cipher_descriptor.o [5]
cipher_is_valid            0x5'4bbd    0x24  Code  Gb  crypt_cipher_is_valid.o [5]
clock                      0x3'4179     0xa  Code  Gb  clock.o [9]
compare                    0x4'4e8f    0x32  Code  Lc  ltm_desc.o [5]
compare_d                  0x4'4ec1    0x32  Code  Lc  ltm_desc.o [5]
compare_testvector         0x1'619b    0x30  Code  Gb  compare_testvector.o [5]
cookey                     0x2'f941    0xa0  Code  Lc  des.o [5]
copy                       0x4'4e1d    0x14  Code  Lc  ltm_desc.o [5]
count_bits                 0x4'4ef3     0xc  Code  Lc  ltm_desc.o [5]
count_lsb_bits             0x4'4eff     0xc  Code  Lc  ltm_desc.o [5]
crypt_mp_init              0x3'3621    0x28  Code  Gb  crypt_inits.o [5]
ctr_done                   0x5'4ee5    0x30  Code  Gb  ctr_done.o [5]
ctr_encrypt                0x5'4df1    0xee  Code  Gb  ctr_encrypt.o [5]
ctr_start                  0x5'4be1   0x150  Code  Gb  ctr_start.o [5]
cycle                      0x2'a651    0x3c  Code  Lc  sober128_stream.o [5]
dbg_clock_ecc           0x1000'8cd0     0x4  Data  Gb  hxsc_crypto.o [1]
dbg_clock_init          0x1000'8cc4     0x4  Data  Gb  hxsc_crypto.o [1]
dbg_clock_rsa           0x1000'8ccc     0x4  Data  Gb  hxsc_crypto.o [1]
dbg_clock_sha256        0x1000'8cc8     0x4  Data  Gb  hxsc_crypto.o [1]
dbg_clock_start         0x1000'8cc0     0x4  Data  Gb  hxsc_crypto.o [1]
dbg_took                0x1000'8cd4     0x4  Data  Gb  hxsc_crypto.o [1]
decrypt                    0x4'3c65    0x7a  Code  Lc  multi2.o [5]
decstr_to_int              0x3'022d    0x48  Code  Lc  am_util_stdio.o [1]
deinit                     0x4'4df7    0x12  Code  Lc  ltm_desc.o [5]
der_asn1_tag_to_type_map
                           0x5'c664    0x20  Data  Gb  der_asn1_maps.o [5]
der_asn1_tag_to_type_map_sz
                           0x5'd4a0     0x4  Data  Gb  der_asn1_maps.o [5]
der_asn1_type_to_identifier_map
                           0x5'aa54    0x50  Data  Gb  der_asn1_maps.o [5]
der_asn1_type_to_identifier_map_sz
                           0x5'd49c     0x4  Data  Gb  der_asn1_maps.o [5]
der_decode_asn1_identifier
                           0x3'16ed   0x158  Code  Gb  der_decode_asn1_identifier.o [5]
der_decode_asn1_length     0x3'1845    0x6e  Code  Gb  der_decode_asn1_length.o [5]
der_decode_bit_string      0x3'1af1    0xc6  Code  Gb  der_decode_bit_string.o [5]
der_decode_boolean         0x3'18b3    0x34  Code  Gb  der_decode_boolean.o [5]
der_decode_choice          0x3'2f6b   0x42e  Code  Gb  der_decode_choice.o [5]
der_decode_custom_type     0x3'0a1d    0x1e  Code  Gb  der_decode_custom_type.o [5]
der_decode_custom_type_ex
                           0x3'0a3b   0x82a  Code  Gb  der_decode_custom_type.o [5]
der_decode_generalizedtime
                           0x3'27d1   0x272  Code  Gb  der_decode_generalizedtime.o [5]
der_decode_ia5_string      0x3'20a3    0xa2  Code  Gb  der_decode_ia5_string.o [5]
der_decode_integer         0x3'18f1    0xbc  Code  Gb  der_decode_integer.o [5]
der_decode_object_identifier
                           0x3'1da5    0xfc  Code  Gb  der_decode_object_identifier.o [5]
der_decode_octet_string
                           0x3'1cf1    0x90  Code  Gb  der_decode_octet_string.o [5]
der_decode_printable_string
                           0x3'21db    0xa2  Code  Gb  der_decode_printable_string.o [5]
der_decode_raw_bit_string
                           0x3'1bed   0x104  Code  Gb  der_decode_raw_bit_string.o [5]
der_decode_sequence_ex     0x3'2a43    0x26  Code  Gb  der_decode_sequence_ex.o [5]
der_decode_sequence_multi
                           0x3'481b    0x22  Code  Gb  der_decode_sequence_multi.o [5]
der_decode_short_integer
                           0x3'1a59    0x48  Code  Gb  der_decode_short_integer.o [5]
der_decode_teletex_string
                           0x3'1f69    0xa2  Code  Gb  der_decode_teletex_string.o [5]
der_decode_utctime         0x3'24f1   0x28a  Code  Gb  der_decode_utctime.o [5]
der_decode_utf8_string     0x3'2313    0xfc  Code  Gb  der_decode_utf8_string.o [5]
der_encode_asn1_identifier
                           0x3'5ee9   0x148  Code  Gb  der_encode_asn1_identifier.o [5]
der_encode_asn1_length     0x3'5e2d    0xba  Code  Gb  der_encode_asn1_length.o [5]
der_encode_bit_string      0x3'730b    0xd0  Code  Gb  der_encode_bit_string.o [5]
der_encode_boolean         0x3'7079    0x2c  Code  Gb  der_encode_boolean.o [5]
der_encode_custom_type     0x3'8205   0x348  Code  Gb  der_encode_custom_type.o [5]
der_encode_generalizedtime
                           0x3'7c41   0x308  Code  Gb  der_encode_generalizedtime.o [5]
der_encode_ia5_string      0x3'76b9    0x8a  Code  Gb  der_encode_ia5_string.o [5]
der_encode_integer         0x3'70a5   0x1cc  Code  Gb  der_encode_integer.o [5]
der_encode_object_identifier
                           0x3'7549   0x170  Code  Gb  der_encode_object_identifier.o [5]
der_encode_octet_string
                           0x3'74cb    0x7e  Code  Gb  der_encode_octet_string.o [5]
der_encode_printable_string
                           0x3'7743    0x8a  Code  Gb  der_encode_printable_string.o [5]
der_encode_raw_bit_string
                           0x3'73db    0xf0  Code  Gb  der_encode_raw_bit_string.o [5]
der_encode_sequence_ex     0x3'6951   0x2fc  Code  Gb  der_encode_sequence_ex.o [5]
der_encode_sequence_multi
                           0x3'531d   0x160  Code  Gb  der_encode_sequence_multi.o [5]
der_encode_set             0x3'7f85    0x78  Code  Gb  der_encode_set.o [5]
der_encode_setof           0x3'8089   0x178  Code  Gb  der_encode_setof.o [5]
der_encode_short_integer
                           0x3'7271    0x9a  Code  Gb  der_encode_short_integer.o [5]
der_encode_utctime         0x3'79ad   0x294  Code  Gb  der_encode_utctime.o [5]
der_encode_utf8_string     0x3'77cd   0x1de  Code  Gb  der_encode_utf8_string.o [5]
der_ia5_char_encode        0x3'2145    0x24  Code  Gb  der_length_ia5_string.o [5]
der_ia5_value_decode       0x3'2169    0x24  Code  Gb  der_length_ia5_string.o [5]
der_length_asn1_identifier
                           0x3'41eb    0x12  Code  Gb  der_length_asn1_identifier.o [5]
der_length_asn1_length     0x3'4183    0x12  Code  Gb  der_length_asn1_length.o [5]
der_length_bit_string      0x3'1bb7    0x36  Code  Gb  der_length_bit_string.o [5]
der_length_boolean         0x3'18e7     0xa  Code  Gb  der_length_boolean.o [5]
der_length_custom_type     0x3'2cc1   0x2aa  Code  Gb  der_length_custom_type.o [5]
der_length_generalizedtime
                           0x3'41b1    0x3a  Code  Gb  der_length_generalizedtime.o [5]
der_length_ia5_string      0x3'2191    0x4a  Code  Gb  der_length_ia5_string.o [5]
der_length_integer         0x3'19ad    0xac  Code  Gb  der_length_integer.o [5]
der_length_object_identifier
                           0x3'1eb1    0xb8  Code  Gb  der_length_object_identifier.o [5]
der_length_octet_string
                           0x3'1d81    0x24  Code  Gb  der_length_octet_string.o [5]
der_length_printable_string
                           0x3'22c9    0x4a  Code  Gb  der_length_printable_string.o [5]
der_length_sequence        0x3'2a69    0x16  Code  Gb  der_length_sequence.o [5]
der_length_sequence_ex     0x3'2a7f   0x242  Code  Gb  der_length_sequence.o [5]
der_length_short_integer
                           0x3'1aa1    0x50  Code  Gb  der_length_short_integer.o [5]
der_length_teletex_string
                           0x3'2059    0x4a  Code  Gb  der_length_teletex_string.o [5]
der_length_utctime         0x3'4195    0x1c  Code  Gb  der_length_utctime.o [5]
der_length_utf8_string     0x3'2441    0x5a  Code  Gb  der_length_utf8_string.o [5]
der_object_identifier_bits
                           0x3'1ea1    0x10  Code  Gb  der_length_object_identifier.o [5]
der_printable_char_encode
                           0x3'227d    0x24  Code  Gb  der_length_printable_string.o [5]
der_printable_value_decode
                           0x3'22a1    0x24  Code  Gb  der_length_printable_string.o [5]
der_teletex_char_encode
                           0x3'200d    0x24  Code  Gb  der_length_teletex_string.o [5]
der_teletex_value_decode
                           0x3'2031    0x24  Code  Gb  der_length_teletex_string.o [5]
der_utf8_charsize          0x3'240f    0x22  Code  Gb  der_length_utf8_string.o [5]
der_utf8_valid_char        0x3'2431    0x10  Code  Gb  der_length_utf8_string.o [5]
des3_desc                  0x5'998c    0x68  Data  Gb  des.o [5]
des3_done                  0x3'00bb     0x2  Code  Gb  des.o [5]
des3_ecb_decrypt           0x2'fe9b    0x84  Code  Gb  des.o [5]
des3_ecb_encrypt           0x2'fe19    0x82  Code  Gb  des.o [5]
des3_keysize               0x3'00d1    0x22  Code  Gb  des.o [5]
des3_setup                 0x2'fca3    0x98  Code  Gb  des.o [5]
des3_test                  0x2'ffef    0x82  Code  Gb  des.o [5]
des_desc                   0x5'9924    0x68  Data  Gb  des.o [5]
des_done                   0x3'00b9     0x2  Code  Gb  des.o [5]
des_ecb_decrypt            0x2'fda9    0x70  Code  Gb  des.o [5]
des_ecb_encrypt            0x2'fd3b    0x6e  Code  Gb  des.o [5]
des_fp                     0x1'a280  0x4000  Data  Lc  des.o [5]
des_ip                     0x1'6280  0x4000  Data  Lc  des.o [5]
des_keysize                0x3'00bd    0x14  Code  Gb  des.o [5]
des_setup                  0x2'fc6b    0x38  Code  Gb  des.o [5]
des_test                   0x2'ff1f    0xd0  Code  Gb  des.o [5]
des_test::cases            0x5'4f14   0x280  Data  Lc  des.o [5]
desfunc                    0x2'f9e1   0x28a  Code  Lc  des.o [5]
deskey                     0x2'f7f5   0x14c  Code  Lc  des.o [5]
device_info_get            0x5'6acd    0xca  Code  Lc  am_hal_mcuctrl.o [4]
digits                     0x5'aacc    0x28  Data  Lc  iar_Stoulx.o [2]
dispose_chunk              0x2'4515   0x4a6  Code  Lc  dlmalloc.o [2]
div_2                      0x4'505f    0x14  Code  Lc  ltm_desc.o [5]
divide                     0x4'5043    0x1c  Code  Lc  ltm_desc.o [5]
divu64_10                  0x3'00fd    0xbe  Code  Lc  am_util_stdio.o [1]
ecc_copy_curve             0x3'50d9    0xf0  Code  Gb  ecc_set_curve_internal.o [5]
ecc_find_curve             0x3'3a77    0xca  Code  Gb  ecc_find_curve.o [5]
ecc_free                   0x3'4d31    0x4c  Code  Gb  ecc_free.o [5]
ecc_generate_key           0x3'51d1    0x52  Code  Gb  ecc_make_key.o [5]
ecc_get_oid_str            0x3'6c4d    0x18  Code  Gb  ecc_get_oid_str.o [5]
ecc_set_curve              0x3'3b49    0xfc  Code  Gb  ecc_set_curve.o [5]
ecc_set_key                0x3'3c49    0xd8  Code  Gb  ecc_set_key.o [5]
ecc_sign_hash_ex           0x3'3d21   0x430  Code  Gb  ecc_sign_hash.o [5]
ecc_ssh_ecdsa_encode_name
                           0x3'54f9    0xb8  Code  Gb  ecc_ssh_ecdsa_encode_name.o [5]
encrypt                    0x4'3c11    0x54  Code  Lc  multi2.o [5]
exit                       0x5'c6ef     0x4  Code  Gb  exit.o [2]
exptmod                    0x4'51bd    0x1c  Code  Lc  ltm_desc.o [5]
fast_mp_invmod             0x4'628d   0x242  Code  Gb  bn_fast_mp_invmod.o [6]
fast_mp_montgomery_reduce
                           0x4'67d9   0x18e  Code  Gb  bn_fast_mp_montgomery_reduce.o [6]
fast_s_mp_mul_digs         0x4'1bed    0xf2  Code  Gb  bn_fast_s_mp_mul_digs.o [6]
fast_s_mp_mul_high_digs
                           0x5'81e3    0xf2  Code  Gb  bn_fast_s_mp_mul_high_digs.o [6]
fast_s_mp_sqr              0x4'2997   0x160  Code  Gb  bn_fast_s_mp_sqr.o [6]
find_hash                  0x3'3655    0x3c  Code  Gb  crypt_find_hash.o [5]
find_prng                  0x3'3501    0x3c  Code  Gb  crypt_find_prng.o [5]
fortuna_add_entropy        0x4'38ff    0x2e  Code  Gb  fortuna.o [5]
fortuna_desc               0x5'c274    0x28  Data  Gb  fortuna.o [5]
fortuna_done               0x4'3a39    0x36  Code  Gb  fortuna.o [5]
fortuna_export             0x4'3a6f    0x30  Code  Gb  fortuna.o [5]
fortuna_import             0x4'3a9f    0x38  Code  Gb  fortuna.o [5]
fortuna_read               0x4'3957    0xe2  Code  Gb  fortuna.o [5]
fortuna_ready              0x4'392d    0x2a  Code  Gb  fortuna.o [5]
fortuna_start              0x4'37cb    0xc2  Code  Gb  fortuna.o [5]
fortuna_test               0x4'3add    0x16  Code  Gb  fortuna.o [5]
fortuna_update_seed        0x4'3769    0x62  Code  Gb  fortuna.o [5]
free                       0x3'3399     0x4  Code  Gb  heaptramp0.o [2]
ftoa                       0x3'03a5   0x176  Code  Lc  am_util_stdio.o [1]
gAmHalResetStatus       0x1000'8ce4     0x4  Data  Gb  am_hal_reset.o [4]
gEncryptedBtcKey        0x1000'4000   0x100  Data  Lc  hxsc_crypto.o [1]
gEncryptedBtcKeySize    0x1000'4100     0x4  Data  Lc  hxsc_crypto.o [1]
gSecretKey              0x1000'4104   0x588  Data  Lc  hxsc_crypto.o [1]
gSecretKeySize          0x1000'468c     0x4  Data  Lc  hxsc_crypto.o [1]
g_AM_BSP_GPIO_ITM_SWO      0x5'd45c     0x4  Data  Gb  am_bsp_pins.o [3]
g_AM_HAL_GPIO_DISABLE      0x5'd454     0x4  Data  Gb  am_hal_gpio.o [4]
g_AM_HAL_GPIO_OUTPUT       0x5'd458     0x4  Data  Gb  am_hal_gpio.o [4]
g_DeviceNameApollo         0x5'd304     0x8  Data  Lc  am_util_id.o [1]
g_DeviceNameApollo2        0x5'd30c     0x8  Data  Lc  am_util_id.o [1]
g_DeviceNameApollo3        0x5'd314     0x8  Data  Lc  am_util_id.o [1]
g_am_hal_flash             0x5'a594    0x60  Data  Gb  am_hal_flash.o [4]
g_am_hal_mcuctrl_flash_size
                           0x5'b128    0x40  Data  Gb  am_hal_mcuctrl.o [4]
g_am_hal_mcuctrl_sram_size
                           0x5'b168    0x40  Data  Gb  am_hal_mcuctrl.o [4]
g_bTxtXlate             0x1000'8cf0     0x1  Data  Lc  am_util_stdio.o [1]
g_func                     0x4'44a5    0x88  Code  Lc  skipjack.o [5]
g_pfnCharPrint          0x1000'8cb8     0x4  Data  Gb  am_util_stdio.o [1]
g_prfbuf                0x1000'88c8   0x100  Data  Lc  am_util_stdio.o [1]
g_ui32HALversion           0x5'd44c     0x4  Data  Gb  am_hal_global.o [4]
g_ui32PrintInterface    0x1000'8cd8     0x4  Data  Lc  am_bsp.o [3]
g_ui8Bit76Capabilities     0x5'b91c    0x34  Data  Lc  am_hal_gpio.o [4]
g_ui8DeviceNameUnknown     0x5'cde4    0x10  Data  Lc  am_util_id.o [1]
g_ui8HALcompiler           0x5'be60    0x30  Data  Gb  am_hal_global.o [4]
g_ui8Inpen                 0x5'b8e8    0x34  Data  Lc  am_hal_gpio.o [4]
g_ui8NCEtable              0x5'87b0    0xc8  Data  Lc  am_hal_gpio.o [4]
g_ui8VendorNameAmbq        0x5'd31c     0x8  Data  Lc  am_util_id.o [1]
g_ui8VendorNameUnknown     0x5'd324     0x8  Data  Lc  am_util_id.o [1]
g_ui8nCEpins               0x5'b950    0x34  Data  Lc  am_hal_gpio.o [4]
gcd                        0x4'509b    0x18  Code  Lc  ltm_desc.o [5]
getStackedReg              0x5'82f1     0xa  Code  Gb  am_util_faultisr.o [1]
get_digit                  0x4'4e6f    0x18  Code  Lc  ltm_desc.o [5]
get_digit_count            0x4'4e87     0x8  Code  Lc  ltm_desc.o [5]
get_int                    0x4'4e63     0xc  Code  Lc  ltm_desc.o [5]
gf_mult                    0x2'b58d    0xe8  Code  Lc  twofish.o [5]
h_func                     0x2'b6f3   0x16a  Code  Lc  twofish.o [5]
hash_descriptor         0x1000'6600   0xdd0  Data  Gb  crypt_hash_descriptor.o [5]
hash_is_valid              0x3'483d    0x24  Code  Gb  crypt_hash_is_valid.o [5]
hash_memory                0x3'6225    0xb0  Code  Gb  hash_memory.o [5]
hxsc_authenticate          0x3'1359    0x7c  Code  Gb  hxsc_crypto.o [1]
hxsc_calloc                0x3'1279    0x10  Code  Gb  hxsc_crypto.o [1]
hxsc_create_btc_signature
                           0x3'148f    0x60  Code  Lc  hxsc_crypto.o [1]
hxsc_create_ecc_key        0x3'144f    0x40  Code  Lc  hxsc_crypto.o [1]
hxsc_crypto                0x3'154d    0xfe  Code  Gb  hxsc_crypto.o [1]
hxsc_crypto::auth_challenge
                        0x1000'4690    0x10  Data  Lc  hxsc_crypto.o [1]
hxsc_crypto::btc_signature
                        0x1000'89c8   0x100  Data  Lc  hxsc_crypto.o [1]
hxsc_crypto::decrypted_btc_key
                        0x1000'8c20    0x80  Data  Lc  hxsc_crypto.o [1]
hxsc_dec_btc_key           0x3'13d5    0x7a  Code  Lc  hxsc_crypto.o [1]
hxsc_free                  0x3'1289     0xc  Code  Gb  hxsc_crypto.o [1]
hxsc_get_btc_encrypted_private_key
                           0x3'12b5    0x10  Code  Gb  hxsc_crypto.o [1]
hxsc_get_card_secret_key
                           0x3'12c5    0x10  Code  Gb  hxsc_crypto.o [1]
hxsc_get_seed              0x3'1295    0x20  Code  Gb  hxsc_crypto.o [1]
hxsc_get_seed::gSeedList
                           0x5'c7a8    0x1c  Data  Lc  hxsc_crypto.o [1]
hxsc_init                  0x3'1335    0x24  Code  Lc  hxsc_crypto.o [1]
hxsc_malloc                0x3'126d     0xc  Code  Gb  hxsc_crypto.o [1]
hxsc_register_all_alogithms
                           0x3'12d5    0x60  Code  Lc  hxsc_crypto.o [1]
hxsc_string_to_hex         0x3'14ef    0x56  Code  Gb  hxsc_crypto.o [1]
ia5_table                  0x5'4054   0x330  Data  Lc  der_length_ia5_string.o [5]
idea_desc                  0x5'99f4    0x68  Data  Gb  idea.o [5]
idea_done                  0x4'0359     0x2  Code  Gb  idea.o [5]
idea_ecb_decrypt           0x4'0343    0x16  Code  Gb  idea.o [5]
idea_ecb_encrypt           0x4'032f    0x14  Code  Gb  idea.o [5]
idea_keysize               0x4'035b    0x14  Code  Gb  idea.o [5]
idea_setup                 0x4'0307    0x28  Code  Gb  idea.o [5]
idea_test                  0x4'036f    0xaa  Code  Gb  idea.o [5]
idea_test::tests           0x5'8c10    0xa0  Data  Lc  idea.o [5]
ig_func                    0x4'452d    0x88  Code  Lc  skipjack.o [5]
ikeystep                   0x5'c224    0x28  Data  Lc  skipjack.o [5]
inc_er                  0x1000'8cbc     0x4  Data  Gb  card_applic_main.o [1]
init                       0x4'4dc5    0x32  Code  Lc  ltm_desc.o [5]
init_copy                  0x4'4e31    0x1e  Code  Lc  ltm_desc.o [5]
init_mparams               0x2'3d9b    0x32  Code  Lc  dlmalloc.o [2]
init_top                   0x2'3dcd    0x36  Code  Lc  dlmalloc.o [2]
intro_sort                 0x3'88c9   0x2d0  Code  Lc  qsort.o [2]
invmod                     0x4'5137    0x18  Code  Lc  ltm_desc.o [5]
isprime                    0x4'51d9    0x2e  Code  Lc  ltm_desc.o [5]
kasumi_desc                0x5'9a5c    0x68  Data  Gb  kasumi.o [5]
kasumi_done                0x4'4cc7     0x2  Code  Gb  kasumi.o [5]
kasumi_ecb_decrypt         0x4'4ac1    0xc4  Code  Gb  kasumi.o [5]
kasumi_ecb_encrypt         0x4'49fd    0xc4  Code  Gb  kasumi.o [5]
kasumi_keysize             0x4'4cc9    0x14  Code  Gb  kasumi.o [5]
kasumi_setup               0x4'4b85   0x142  Code  Gb  kasumi.o [5]
kasumi_setup::C            0x5'c5e4    0x20  Data  Lc  kasumi.o [5]
kasumi_test                0x4'4cdd    0xa6  Code  Gb  kasumi.o [5]
kasumi_test::tests         0x5'8cb0    0xa0  Data  Lc  kasumi.o [5]
key_sigma                  0x5'be90    0x30  Data  Lc  camellia.o [5]
keystep                    0x5'c1fc    0x28  Data  Lc  skipjack.o [5]
khazad_crypt               0x3'd749   0x270  Code  Lc  khazad.o [5]
khazad_desc                0x5'9ac4    0x68  Data  Gb  khazad.o [5]
khazad_done                0x3'dae9     0x2  Code  Gb  khazad.o [5]
khazad_ecb_decrypt         0x3'd9cf    0x18  Code  Gb  khazad.o [5]
khazad_ecb_encrypt         0x3'd9b9    0x16  Code  Gb  khazad.o [5]
khazad_keysize             0x3'daeb    0x14  Code  Gb  khazad.o [5]
khazad_setup               0x3'd429   0x320  Code  Gb  khazad.o [5]
khazad_test                0x3'd9e7    0xce  Code  Gb  khazad.o [5]
khazad_test::tests         0x5'9390    0x80  Data  Lc  khazad.o [5]
kseed_desc                 0x5'9b2c    0x68  Data  Gb  kseed.o [5]
kseed_done                 0x2'dab5     0x2  Code  Gb  kseed.o [5]
kseed_ecb_decrypt          0x2'd9e9    0xcc  Code  Gb  kseed.o [5]
kseed_ecb_encrypt          0x2'd91f    0xca  Code  Gb  kseed.o [5]
kseed_keysize              0x2'db61    0x14  Code  Gb  kseed.o [5]
kseed_setup                0x2'd13d   0x1ea  Code  Gb  kseed.o [5]
kseed_test                 0x2'dab7    0x88  Code  Gb  kseed.o [5]
kseed_test::tests          0x5'8940    0xc0  Data  Lc  kseed.o [5]
lcm                        0x4'50b3    0x18  Code  Lc  ltm_desc.o [5]
lnz                        0x5'b568    0x40  Data  Lc  bn_mp_cnt_lsb.o [6]
ltc_cleanup_multi          0x3'4467    0x2e  Code  Gb  multi.o [5]
ltc_deinit_multi           0x3'4443    0x24  Code  Gb  multi.o [5]
ltc_ecc_copy_point         0x3'64ef    0x46  Code  Gb  ltc_ecc_points.o [5]
ltc_ecc_curves             0x5'4684   0x2a0  Data  Gb  ecc.o [5]
ltc_ecc_del_point          0x3'6481    0x1c  Code  Gb  ltc_ecc_points.o [5]
ltc_ecc_import_point       0x3'4d7d   0x1a8  Code  Gb  ltc_ecc_import_point.o [5]
ltc_ecc_is_point           0x3'6319   0x134  Code  Gb  ltc_ecc_is_point.o [5]
ltc_ecc_is_point_at_infinity
                           0x3'6889    0xc8  Code  Gb  ltc_ecc_is_point_at_infinity.o [5]
ltc_ecc_map                0x3'6f5d   0x11c  Code  Gb  ltc_ecc_map.o [5]
ltc_ecc_mul2add            0x5'3529   0x3c0  Code  Gb  ltc_ecc_mul2add.o [5]
ltc_ecc_mulmod             0x3'6539   0x350  Code  Gb  ltc_ecc_mulmod_timing.o [5]
ltc_ecc_new_point          0x3'644d    0x34  Code  Gb  ltc_ecc_points.o [5]
ltc_ecc_projective_add_point
                           0x3'e19d   0x67c  Code  Gb  ltc_ecc_projective_add_point.o [5]
ltc_ecc_projective_dbl_point
                           0x3'e819   0x540  Code  Gb  ltc_ecc_projective_dbl_point.o [5]
ltc_ecc_set_point_xyz      0x3'649d    0x52  Code  Gb  ltc_ecc_points.o [5]
ltc_ecc_verify_key         0x3'4f25    0xe0  Code  Gb  ltc_ecc_verify_key.o [5]
ltc_init_multi             0x3'43e5    0x5e  Code  Gb  multi.o [5]
ltc_mp                  0x1000'8ac8    0xd4  Data  Gb  crypt_ltc_mp_descriptor.o [5]
ltm_desc                   0x5'83ac    0xd4  Data  Gb  ltm_desc.o [5]
ltm_prime_tab              0x5'23a8   0x400  Data  Gb  bn_prime_tab.o [6]
ltm_rng                 0x1000'8cdc     0x4  Data  Gb  bn_mp_rand.o [6]
ltm_rng_callback        0x1000'8ce0     0x4  Data  Gb  bn_mp_rand.o [6]
main                       0x5'622d   0x1f8  Code  Gb  card_applic_main.o [1]
mcuctrl_fault_status       0x5'6b97    0x3a  Code  Lc  am_hal_mcuctrl.o [4]
mds_mult                   0x2'b675    0x42  Code  Lc  twofish.o [5]
mds_tab                    0x2'95fc  0x1000  Data  Lc  twofish.o [5]
med3                       0x3'87f3    0x50  Code  Lc  qsort.o [2]
mem_neq                    0x3'62d5    0x44  Code  Gb  mem_neq.o [5]
memchr                     0x3'868d          Code  Gb  memchr.o [8]
modi                       0x4'5073    0x28  Code  Lc  ltm_desc.o [5]
montgomery_deinit          0x4'51b1     0xc  Code  Lc  ltm_desc.o [5]
montgomery_normalization
                           0x4'5185    0x14  Code  Lc  ltm_desc.o [5]
montgomery_reduce          0x4'5199    0x18  Code  Lc  ltm_desc.o [5]
montgomery_setup           0x4'514f    0x36  Code  Lc  ltm_desc.o [5]
mp_2expt                   0x4'52cf    0x4e  Code  Gb  bn_mp_2expt.o [6]
mp_abs                     0x4'1dc7    0x1e  Code  Gb  bn_mp_abs.o [6]
mp_add                     0x4'1355    0x50  Code  Gb  bn_mp_add.o [6]
mp_add_d                   0x4'0e45    0xf2  Code  Gb  bn_mp_add_d.o [6]
mp_addmod                  0x4'5909    0x4e  Code  Gb  bn_mp_addmod.o [6]
mp_clamp                   0x4'1523    0x2a  Code  Gb  bn_mp_clamp.o [6]
mp_clear                   0x4'0a8d    0x36  Code  Gb  bn_mp_clear.o [6]
mp_clear_multi             0x4'142b    0x1a  Code  Gb  bn_mp_clear_multi.o [6]
mp_cmp                     0x4'0c6f    0x34  Code  Gb  bn_mp_cmp.o [6]
mp_cmp_d                   0x4'0c3b    0x34  Code  Gb  bn_mp_cmp_d.o [6]
mp_cmp_mag                 0x4'1e13    0x60  Code  Gb  bn_mp_cmp_mag.o [6]
mp_cnt_lsb                 0x4'0f39    0x48  Code  Gb  bn_mp_cnt_lsb.o [6]
mp_copy                    0x4'1f45    0x5c  Code  Gb  bn_mp_copy.o [6]
mp_count_bits              0x4'10db    0x2c  Code  Gb  bn_mp_count_bits.o [6]
mp_div                     0x4'2113   0x3b4  Code  Gb  bn_mp_div.o [6]
mp_div_2                   0x4'13a5    0x86  Code  Gb  bn_mp_div_2.o [6]
mp_div_2d                  0x4'0f81    0xb2  Code  Gb  bn_mp_div_2d.o [6]
mp_div_3                   0x4'2dd1    0xdc  Code  Gb  bn_mp_div_3.o [6]
mp_div_d                   0x4'610d   0x132  Code  Gb  bn_mp_div_d.o [6]
mp_dr_is_modulus           0x4'6d2d    0x2c  Code  Gb  bn_mp_dr_is_modulus.o [6]
mp_dr_reduce               0x5'8b65    0xaa  Code  Gb  bn_mp_dr_reduce.o [6]
mp_dr_setup                0x4'74cd     0xc  Code  Gb  bn_mp_dr_setup.o [6]
mp_exch                    0x4'1e73    0x2a  Code  Gb  bn_mp_exch.o [6]
mp_exptmod                 0x4'5c57   0x102  Code  Gb  bn_mp_exptmod.o [6]
mp_exptmod_fast            0x4'6da9   0x3ec  Code  Gb  bn_mp_exptmod_fast.o [6]
mp_gcd                     0x4'0b07   0x134  Code  Gb  bn_mp_gcd.o [6]
mp_get_bit                 0x4'1307    0x4e  Code  Gb  bn_mp_get_bit.o [6]
mp_get_int                 0x4'529b    0x34  Code  Gb  bn_mp_get_int.o [6]
mp_grow                    0x4'1fa1    0x48  Code  Gb  bn_mp_grow.o [6]
mp_init                    0x4'096d    0x3a  Code  Gb  bn_mp_init.o [6]
mp_init_copy               0x4'1de5    0x2e  Code  Gb  bn_mp_init_copy.o [6]
mp_init_multi              0x4'0ac3    0x44  Code  Gb  bn_mp_init_multi.o [6]
mp_init_set                0x4'7335    0x22  Code  Gb  bn_mp_init_set.o [6]
mp_init_set_int            0x4'7539    0x1e  Code  Gb  bn_mp_init_set_int.o [6]
mp_init_size               0x4'20cb    0x48  Code  Gb  bn_mp_init_size.o [6]
mp_invmod                  0x4'5a3d    0x4e  Code  Gb  bn_mp_invmod.o [6]
mp_invmod_slow             0x4'64cf   0x30a  Code  Gb  bn_mp_invmod_slow.o [6]
mp_is_square               0x4'7195   0x15c  Code  Gb  bn_mp_is_square.o [6]
mp_jacobi                  0x4'625b    0x32  Code  Gb  bn_mp_jacobi.o [6]
mp_karatsuba_mul           0x4'1a07   0x1e6  Code  Gb  bn_mp_karatsuba_mul.o [6]
mp_karatsuba_sqr           0x4'2847   0x150  Code  Gb  bn_mp_karatsuba_sqr.o [6]
mp_kronecker               0x4'0ca5   0x1a0  Code  Gb  bn_mp_kronecker.o [6]
mp_kronecker::table        0x5'c644    0x20  Data  Lc  bn_mp_kronecker.o [6]
mp_lcm                     0x4'587b    0x8e  Code  Gb  bn_mp_lcm.o [6]
mp_lshd                    0x4'2cc1    0x84  Code  Gb  bn_mp_lshd.o [6]
mp_mod                     0x4'11f3    0x68  Code  Gb  bn_mp_mod.o [6]
mp_mod_2d                  0x4'1fe9    0x9a  Code  Gb  bn_mp_mod_2d.o [6]
mp_mod_d                   0x4'586f     0xc  Code  Gb  bn_mp_mod_d.o [6]
mp_montgomery_calc_normalization
                           0x4'5acd    0x82  Code  Gb  bn_mp_montgomery_calc_normalization.o [6]
mp_montgomery_reduce       0x4'5b4f   0x108  Code  Gb  bn_mp_montgomery_reduce.o [6]
mp_montgomery_setup        0x4'5a8b    0x42  Code  Gb  bn_mp_montgomery_setup.o [6]
mp_mul                     0x4'09f1    0x9c  Code  Gb  bn_mp_mul.o [6]
mp_mul_2                   0x4'1059    0x82  Code  Gb  bn_mp_mul_2.o [6]
mp_mul_2d                  0x4'1463    0xc0  Code  Gb  bn_mp_mul_2d.o [6]
mp_mul_d                   0x4'2d45    0x8c  Code  Gb  bn_mp_mul_d.o [6]
mp_mulmod                  0x4'59a5    0x50  Code  Gb  bn_mp_mulmod.o [6]
mp_neg                     0x4'521b    0x38  Code  Gb  bn_mp_neg.o [6]
mp_prime_is_divisible      0x4'72f1    0x44  Code  Gb  bn_mp_prime_is_divisible.o [6]
mp_prime_is_prime          0x4'5d69   0x290  Code  Gb  bn_mp_prime_is_prime.o [6]
mp_prime_miller_rabin      0x4'7357   0x108  Code  Gb  bn_mp_prime_miller_rabin.o [6]
mp_prime_strong_lucas_selfridge
                           0x4'0485   0x4e4  Code  Gb  bn_mp_prime_strong_lucas_selfridge.o [6]
mp_rand                    0x4'6059    0x7e  Code  Gb  bn_mp_rand.o [6]
mp_read_radix              0x4'531d    0xc4  Code  Gb  bn_mp_read_radix.o [6]
mp_read_unsigned_bin       0x4'54fb    0x62  Code  Gb  bn_mp_read_unsigned_bin.o [6]
mp_reduce                  0x5'8001    0xf4  Code  Gb  bn_mp_reduce.o [6]
mp_reduce_2k               0x5'8d51    0x8e  Code  Gb  bn_mp_reduce_2k.o [6]
mp_reduce_2k_l             0x5'8ddf    0x88  Code  Gb  bn_mp_reduce_2k_l.o [6]
mp_reduce_2k_setup         0x4'74d9    0x60  Code  Gb  bn_mp_reduce_2k_setup.o [6]
mp_reduce_2k_setup_l       0x4'7489    0x44  Code  Gb  bn_mp_reduce_2k_setup_l.o [6]
mp_reduce_is_2k            0x4'6d59    0x50  Code  Gb  bn_mp_reduce_is_2k.o [6]
mp_reduce_is_2k_l          0x4'6967    0x54  Code  Gb  bn_mp_reduce_is_2k_l.o [6]
mp_reduce_setup            0x4'745f    0x2a  Code  Gb  bn_mp_reduce_setup.o [6]
mp_rshd                    0x4'2083    0x48  Code  Gb  bn_mp_rshd.o [6]
mp_s_rmap                  0x5'd48c     0x4  Data  Gb  bn_mp_radix_smap.o [6]
mp_s_rmap_reverse          0x5'a6b4    0x58  Data  Gb  bn_mp_radix_smap.o [6]
mp_s_rmap_reverse_sz       0x5'd490     0x4  Data  Gb  bn_mp_radix_smap.o [6]
mp_set                     0x4'1033    0x26  Code  Gb  bn_mp_set.o [6]
mp_set_int                 0x4'5253    0x48  Code  Gb  bn_mp_set_int.o [6]
mp_set_long                0x4'09a7    0x48  Code  Gb  bn_mp_set_long.o [6]
mp_sqr                     0x4'125d    0x58  Code  Gb  bn_mp_sqr.o [6]
mp_sqrmod                  0x4'59f5    0x48  Code  Gb  bn_mp_sqrmod.o [6]
mp_sqrt                    0x4'7557    0xdc  Code  Gb  bn_mp_sqrt.o [6]
mp_sqrtmod_prime           0x4'555d   0x312  Code  Gb  bn_mp_sqrtmod_prime.o [6]
mp_sub                     0x4'12b5    0x52  Code  Gb  bn_mp_sub.o [6]
mp_sub_d                   0x4'1107    0xec  Code  Gb  bn_mp_sub_d.o [6]
mp_submod                  0x4'5957    0x4e  Code  Gb  bn_mp_submod.o [6]
mp_to_unsigned_bin         0x4'54a5    0x56  Code  Gb  bn_mp_to_unsigned_bin.o [6]
mp_toom_mul                0x4'154d   0x4ba  Code  Gb  bn_mp_toom_mul.o [6]
mp_toom_sqr                0x4'24c7   0x380  Code  Gb  bn_mp_toom_sqr.o [6]
mp_toradix                 0x4'53e1    0xa4  Code  Gb  bn_mp_toradix.o [6]
mp_unsigned_bin_size       0x4'5485    0x20  Code  Gb  bn_mp_unsigned_bin_size.o [6]
mp_zero                    0x4'1445    0x1e  Code  Gb  bn_mp_zero.o [6]
mparams                 0x1000'8ca0    0x18  Data  Lc  dlmalloc.o [2]
mpi_to_ltc_codes           0x5'c978    0x18  Data  Lc  ltm_desc.o [5]
mpi_to_ltc_error           0x4'4d9d    0x22  Code  Lc  ltm_desc.o [5]
mul                        0x4'4fe7    0x18  Code  Lc  ltm_desc.o [5]
muli                       0x4'4fff    0x18  Code  Lc  ltm_desc.o [5]
mulmod                     0x4'5103    0x1c  Code  Lc  ltm_desc.o [5]
multi2_desc                0x5'9b94    0x68  Data  Gb  multi2.o [5]
multi2_done                0x4'3fa9     0x2  Code  Gb  multi2.o [5]
multi2_ecb_decrypt         0x4'3e05    0x70  Code  Gb  multi2.o [5]
multi2_ecb_encrypt         0x4'3d95    0x70  Code  Gb  multi2.o [5]
multi2_keysize             0x4'3fab    0x14  Code  Gb  multi2.o [5]
multi2_setup               0x4'3cdf    0xb6  Code  Gb  multi2.o [5]
multi2_test                0x4'3e75   0x122  Code  Gb  multi2.o [5]
multi2_test::tests         0x5'9490    0x78  Data  Lc  multi2.o [5]
ndigits_in_hex             0x3'0205    0x28  Code  Lc  am_util_stdio.o [1]
ndigits_in_i64             0x3'01eb    0x1a  Code  Lc  am_util_stdio.o [1]
ndigits_in_u64             0x3'01bb    0x30  Code  Lc  am_util_stdio.o [1]
ndigs                      0x5'aaa4    0x28  Data  Lc  iar_Stoulx.o [2]
neg                        0x4'4e09    0x14  Code  Lc  ltm_desc.o [5]
nltap                      0x2'a68d    0x38  Code  Lc  sober128_stream.o [5]
noekeon_desc               0x5'9bfc    0x68  Data  Gb  noekeon.o [5]
noekeon_done               0x3'feb9     0x2  Code  Gb  noekeon.o [5]
noekeon_ecb_decrypt        0x3'fbe5   0x1c2  Code  Gb  noekeon.o [5]
noekeon_ecb_encrypt        0x3'fa1b   0x1ca  Code  Gb  noekeon.o [5]
noekeon_keysize            0x3'febb    0x14  Code  Gb  noekeon.o [5]
noekeon_setup              0x3'f915   0x106  Code  Gb  noekeon.o [5]
noekeon_test               0x3'fda7   0x100  Code  Gb  noekeon.o [5]
noekeon_test::tests        0x5'6cf8   0x1a0  Data  Lc  noekeon.o [5]
out                        0x3'854d    0x18  Code  Lc  xprintftiny.o [2]
padbuffer                  0x3'0383    0x22  Code  Lc  am_util_stdio.o [1]
pc1                        0x5'b878    0x38  Data  Lc  des.o [5]
pc2                        0x5'bec0    0x30  Data  Lc  des.o [5]
permute                    0x5'7a00   0x100  Data  Lc  rc2.o [5]
pi1                        0x4'3af5     0xa  Code  Lc  multi2.o [5]
pi2                        0x4'3aff    0x1a  Code  Lc  multi2.o [5]
pi3                        0x4'3b19    0x2a  Code  Lc  multi2.o [5]
pi4                        0x4'3b43    0x16  Code  Lc  multi2.o [5]
pincfg_equ                 0x5'3c99    0x12  Code  Lc  am_hal_gpio.o [4]
pk_get_oid                 0x3'60d5    0x34  Code  Gb  pk_get_oid.o [5]
pk_oid_cmp_with_asn1       0x3'54cf    0x28  Code  Gb  pk_oid_cmp.o [5]
pk_oid_cmp_with_ulong      0x3'547d    0x52  Code  Gb  pk_oid_cmp.o [5]
pk_oid_num_to_str          0x3'4c7d    0xb4  Code  Gb  pk_oid_str.o [5]
pk_oid_str_to_num          0x3'4bc5    0xb8  Code  Gb  pk_oid_str.o [5]
pka_oids                   0x5'c624    0x20  Data  Lc  pk_get_oid.o [5]
pkcs_1_mgf1                0x3'6109   0x11c  Code  Gb  pkcs_1_mgf1.o [5]
pkcs_1_oaep_decode         0x3'4861   0x270  Code  Gb  pkcs_1_oaep_decode.o [5]
pkcs_1_v1_5_decode         0x3'4ad1    0xf4  Code  Gb  pkcs_1_v1_5_decode.o [5]
prepend_alloc              0x2'3e03   0x346  Code  Lc  dlmalloc.o [2]
printable_table            0x5'5780   0x250  Data  Lc  der_length_printable_string.o [5]
prng_descriptor         0x1000'81a0   0x550  Data  Gb  crypt_prng_descriptor.o [5]
prng_is_valid              0x3'4351    0x24  Code  Gb  crypt_prng_is_valid.o [5]
pui32Stack              0x1000'0000  0x4000  Data  Lc  startup_iar.o [1]
qsort                      0x3'8b99    0x18  Code  Gb  qsort.o [2]
rand                       0x3'6031    0x94  Code  Gb  rand.o [2]
rand_bn_bits               0x3'5229    0x96  Code  Gb  rand_bn.o [5]
rand_bn_upto               0x3'52bf    0x54  Code  Gb  rand_bn.o [5]
rand_prime                 0x5'5651    0xf8  Code  Gb  rand_prime.o [5]
rc                         0x5'aaf4    0x4c  Data  Lc  anubis.o [5]
rc2_desc                   0x5'9c64    0x68  Data  Gb  rc2.o [5]
rc2_done                   0x4'35e9     0x2  Code  Gb  rc2.o [5]
rc2_ecb_decrypt            0x4'3351   0x144  Code  Gb  rc2.o [5]
rc2_ecb_encrypt            0x4'321b   0x136  Code  Gb  rc2.o [5]
rc2_keysize                0x4'35eb    0x1a  Code  Gb  rc2.o [5]
rc2_setup                  0x4'3201    0x1a  Code  Gb  rc2.o [5]
rc2_setup_ex               0x4'30e1   0x120  Code  Gb  rc2.o [5]
rc2_test                   0x4'3495   0x142  Code  Gb  rc2.o [5]
rc2_test::tests            0x5'6fd8   0x118  Data  Lc  rc2.o [5]
rc4_add_entropy            0x4'7a85    0xb0  Code  Gb  rc4.o [5]
rc4_desc                   0x5'c29c    0x28  Data  Gb  rc4.o [5]
rc4_done                   0x4'7bed    0x14  Code  Gb  rc4.o [5]
rc4_export                 0x4'7c01    0x30  Code  Gb  rc4.o [5]
rc4_import                 0x4'7c31    0x3c  Code  Gb  rc4.o [5]
rc4_read                   0x4'7baf    0x3e  Code  Gb  rc4.o [5]
rc4_ready                  0x4'7b35    0x7a  Code  Gb  rc4.o [5]
rc4_start                  0x4'7a5d    0x28  Code  Gb  rc4.o [5]
rc4_stream_crypt           0x4'7ed7    0x82  Code  Gb  rc4_stream.o [5]
rc4_stream_done            0x4'7f8d    0x1a  Code  Gb  rc4_stream.o [5]
rc4_stream_keystream       0x4'7f59    0x34  Code  Gb  rc4_stream.o [5]
rc4_stream_setup           0x4'7e79    0x5e  Code  Gb  rc4_stream.o [5]
rc4_test                   0x4'7c6d   0x1f4  Code  Gb  rc4.o [5]
rc5_desc                   0x5'9ccc    0x68  Data  Gb  rc5.o [5]
rc5_done                   0x3'f31d     0x2  Code  Gb  rc5.o [5]
rc5_ecb_decrypt            0x3'f07f   0x1ac  Code  Gb  rc5.o [5]
rc5_ecb_encrypt            0x3'eee3   0x19c  Code  Gb  rc5.o [5]
rc5_keysize                0x3'f31f    0x1a  Code  Gb  rc5.o [5]
rc5_setup                  0x3'ed59   0x18a  Code  Gb  rc5.o [5]
rc5_test                   0x3'f22b    0xdc  Code  Gb  rc5.o [5]
rc5_test::tests            0x5'a654    0x60  Data  Lc  rc5.o [5]
rc6_desc                   0x5'9d34    0x68  Data  Gb  rc6.o [5]
rc6_done                   0x2'e511     0x2  Code  Gb  rc6.o [5]
rc6_ecb_decrypt            0x2'e06b   0x39e  Code  Gb  rc6.o [5]
rc6_ecb_encrypt            0x2'dd0d   0x35e  Code  Gb  rc6.o [5]
rc6_keysize                0x2'e513    0x1a  Code  Gb  rc6.o [5]
rc6_setup                  0x2'db75   0x198  Code  Gb  rc6.o [5]
rc6_test                   0x2'e409    0xf6  Code  Gb  rc6.o [5]
rc6_test::tests            0x5'854c    0xcc  Data  Lc  rc6.o [5]
rcon                       0x5'c1d4    0x28  Data  Lc  aes.o [5]
read_radix                 0x4'4f1f    0x18  Code  Lc  ltm_desc.o [5]
realloc                    0x3'339d     0x4  Code  Gb  heaptramp0.o [2]
register_all_ciphers       0x3'33a1   0x100  Code  Gb  crypt_register_all_ciphers.o [5]
register_all_hashes        0x3'34a1    0x1c  Code  Gb  crypt_register_all_hashes.o [5]
register_all_prngs         0x3'34bd    0x44  Code  Gb  crypt_register_all_prngs.o [5]
register_cipher            0x3'41fd    0x70  Code  Gb  crypt_register_cipher.o [5]
register_hash              0x3'426d    0x68  Code  Gb  crypt_register_hash.o [5]
register_prng              0x3'42d5    0x68  Code  Gb  crypt_register_prng.o [5]
rem_105                    0x5'95e0    0x6c  Data  Lc  bn_mp_is_square.o [6]
rem_128                    0x5'9410    0x80  Data  Lc  bn_mp_is_square.o [6]
rijndael_desc              0x5'96b4    0x68  Data  Gb  aes.o [5]
rijndael_done              0x2'd109     0x2  Code  Gb  aes.o [5]
rijndael_ecb_decrypt       0x2'cb93   0x420  Code  Gb  aes.o [5]
rijndael_ecb_encrypt       0x2'c761   0x432  Code  Gb  aes.o [5]
rijndael_keysize           0x2'd10b    0x30  Code  Gb  aes.o [5]
rijndael_setup             0x2'c3e5   0x37c  Code  Gb  aes.o [5]
rijndael_test              0x2'cfb3   0x100  Code  Gb  aes.o [5]
rijndael_test::tests       0x5'8480    0xcc  Data  Lc  aes.o [5]
rng_get_bytes              0x3'43af    0x34  Code  Gb  rng_get_bytes.o [5]
rng_make_prng              0x3'353d    0xe4  Code  Gb  rng_make_prng.o [5]
rot3                       0x3'873b    0x68  Code  Lc  qsort.o [2]
rot_128                    0x1'e31d    0x38  Code  Lc  camellia.o [5]
rotate                     0x3'87a9    0x4a  Code  Lc  qsort.o [2]
rounds                     0x2'd327   0x5f8  Code  Lc  kseed.o [5]
rs_mult                    0x2'b6b7    0x3c  Code  Lc  twofish.o [5]
rsa_decrypt_key_ex         0x3'38e9    0xec  Code  Gb  rsa_decrypt_key.o [5]
rsa_exptmod                0x5'4385   0x300  Code  Gb  rsa_exptmod.o [5]
rsa_free                   0x5'5749    0x38  Code  Gb  rsa_free.o [5]
rsa_import                 0x3'3691   0x258  Code  Gb  rsa_import.o [5]
rsa_make_key               0x5'53f9   0x258  Code  Gb  rsa_make_key.o [5]
s128_diffuse               0x2'a70f   0x672  Code  Lc  sober128_stream.o [5]
s128_genkonst              0x2'a6f1    0x1e  Code  Lc  sober128_stream.o [5]
s128_reloadstate           0x2'a6db    0x16  Code  Lc  sober128_stream.o [5]
s128_savestate             0x2'a6c5    0x16  Code  Lc  sober128_stream.o [5]
s_floor_ilog2              0x4'5d59    0x10  Code  Lc  bn_mp_prime_is_prime.o [6]
s_gen_random               0x4'6045    0x14  Code  Lc  bn_mp_rand.o [6]
s_is_power_of_two          0x4'60e3    0x2a  Code  Lc  bn_mp_div_d.o [6]
s_mp_add                   0x4'2bf9    0xc8  Code  Gb  bn_s_mp_add.o [6]
s_mp_exptmod               0x4'69bd   0x370  Code  Gb  bn_s_mp_exptmod.o [6]
s_mp_mul_digs              0x4'1cdf    0xe8  Code  Gb  bn_s_mp_mul_digs.o [6]
s_mp_mul_high_digs         0x5'80f5    0xee  Code  Gb  bn_s_mp_mul_high_digs.o [6]
s_mp_mul_si                0x4'0425    0x60  Code  Lc  bn_mp_prime_strong_lucas_selfridge.o [6]
s_mp_sqr                   0x4'2af7   0x102  Code  Gb  bn_s_mp_sqr.o [6]
s_mp_sub                   0x4'1e9d    0xa8  Code  Gb  bn_s_mp_sub.o [6]
s_rand_digit               0x4'6035    0x10  Code  Lc  bn_mp_rand.o [6]
s_read_ltm_rng             0x4'6005    0x28  Code  Lc  bn_mp_rand.o [6]
safer_128_keysize          0x2'ec7d    0x14  Code  Gb  safer.o [5]
safer_64_keysize           0x2'ec69    0x14  Code  Gb  safer.o [5]
safer_bias                 0x5'5c1c   0x210  Data  Lc  saferp.o [5]
safer_done                 0x2'edc7     0x2  Code  Gb  safer.o [5]
safer_ebox                 0x5'7b00   0x100  Data  Lc  safer.o [5]
safer_ebox                 0x5'7d00   0x100  Data  Lc  saferp.o [5]
safer_ecb_decrypt          0x2'ea0b   0x25e  Code  Gb  safer.o [5]
safer_ecb_encrypt          0x2'e807   0x204  Code  Gb  safer.o [5]
safer_k128_desc            0x5'9e6c    0x68  Data  Gb  safer.o [5]
safer_k128_setup           0x2'e78b    0x3e  Code  Gb  safer.o [5]
safer_k64_desc             0x5'9d9c    0x68  Data  Gb  safer.o [5]
safer_k64_setup            0x2'e713    0x3c  Code  Gb  safer.o [5]
safer_k64_test             0x2'ec91    0x72  Code  Gb  safer.o [5]
safer_k64_test::k64_ct     0x5'd3cc     0x8  Data  Lc  safer.o [5]
safer_k64_test::k64_key
                           0x5'd3c4     0x8  Data  Lc  safer.o [5]
safer_k64_test::k64_pt     0x5'd3bc     0x8  Data  Lc  safer.o [5]
safer_lbox                 0x5'7c00   0x100  Data  Lc  safer.o [5]
safer_lbox                 0x5'7e00   0x100  Data  Lc  saferp.o [5]
safer_sk128_desc           0x5'9ed4    0x68  Data  Gb  safer.o [5]
safer_sk128_setup          0x2'e7c9    0x3e  Code  Gb  safer.o [5]
safer_sk128_test           0x2'edc9    0xc4  Code  Gb  safer.o [5]
safer_sk128_test::sk128_ct
                           0x5'd3f4     0x8  Data  Lc  safer.o [5]
safer_sk128_test::sk128_key
                           0x5'd084    0x10  Data  Lc  safer.o [5]
safer_sk128_test::sk128_pt
                           0x5'd3ec     0x8  Data  Lc  safer.o [5]
safer_sk64_desc            0x5'9e04    0x68  Data  Gb  safer.o [5]
safer_sk64_setup           0x2'e74f    0x3c  Code  Gb  safer.o [5]
safer_sk64_test            0x2'ed03    0xc4  Code  Gb  safer.o [5]
safer_sk64_test::sk64_ct
                           0x5'd3e4     0x8  Data  Lc  safer.o [5]
safer_sk64_test::sk64_key
                           0x5'd3dc     0x8  Data  Lc  safer.o [5]
safer_sk64_test::sk64_pt
                           0x5'd3d4     0x8  Data  Lc  safer.o [5]
saferp_desc                0x5'9f3c    0x68  Data  Gb  saferp.o [5]
saferp_done                0x1'616d     0x2  Code  Gb  saferp.o [5]
saferp_ecb_decrypt         0x1'204d  0x401e  Code  Gb  saferp.o [5]
saferp_ecb_encrypt           0xc30d  0x5d40  Code  Gb  saferp.o [5]
saferp_keysize             0x1'616f    0x2c  Code  Gb  saferp.o [5]
saferp_setup                 0xc101   0x204  Code  Gb  saferp.o [5]
saferp_setup::rounds       0x5'd238     0xc  Data  Lc  saferp.o [5]
saferp_test                0x1'606b    0xf6  Code  Gb  saferp.o [5]
saferp_test::tests         0x5'8618    0xcc  Data  Lc  saferp.o [5]
sblPreV2                0x1000'46c8    0x30  Data  Lc  am_hal_security.o [4]
sbox                       0x5'7f00   0x100  Data  Lc  skipjack.o [5]
sec_hand                0x1000'8cec     0x4  Data  Lc  xfail_s.o [2]
segment_holding            0x2'3d81    0x1a  Code  Lc  dlmalloc.o [2]
serpent_desc               0x5'9fa4    0x68  Data  Gb  serpent.o [5]
serpent_done               0x2'73f5     0x2  Code  Gb  serpent.o [5]
serpent_ecb_decrypt        0x2'73e1    0x14  Code  Gb  serpent.o [5]
serpent_ecb_encrypt        0x2'73cd    0x14  Code  Gb  serpent.o [5]
serpent_keysize            0x2'73f7    0x2e  Code  Gb  serpent.o [5]
serpent_setup              0x2'7399    0x34  Code  Gb  serpent.o [5]
serpent_test               0x2'7425    0xbe  Code  Gb  serpent.o [5]
serpent_test::tests        0x5'5194   0x264  Data  Lc  serpent.o [5]
set_int                    0x4'4e4f    0x14  Code  Lc  ltm_desc.o [5]
set_rand                   0x4'5207    0x14  Code  Lc  ltm_desc.o [5]
setup                      0x4'3b59    0xb8  Code  Lc  multi2.o [5]
setup_mix                  0x2'c3ad    0x38  Code  Lc  aes.o [5]
sha1_compress              0x3'db01   0x400  Code  Lc  sha1.o [5]
sha1_desc                  0x5'a144    0x68  Data  Gb  sha1.o [5]
sha1_done                  0x3'dfff   0x110  Code  Gb  sha1.o [5]
sha1_init                  0x3'df01    0x26  Code  Gb  sha1.o [5]
sha1_process               0x3'df27    0xd8  Code  Gb  sha1.o [5]
sha1_test                  0x3'e10f    0x60  Code  Gb  sha1.o [5]
sha1_test::tests           0x5'bef0    0x30  Data  Lc  sha1.o [5]
sha256_compress            0x2'13f1  0x25b4  Code  Lc  sha256.o [5]
sha256_desc                0x5'964c    0x68  Data  Gb  sha256.o [5]
sha256_done                0x2'3acd   0x110  Code  Gb  sha256.o [5]
sha256_init                0x2'39ad    0x32  Code  Gb  sha256.o [5]
sha256_process             0x2'39f5    0xd8  Code  Gb  sha256.o [5]
sha256_test                0x2'3bdd    0x60  Code  Gb  sha256.o [5]
sha256_test::tests         0x5'ab40    0x48  Data  Lc  sha256.o [5]
sigma                      0x5'd484     0x4  Data  Lc  chacha_setup.o [5]
simple_strlen              0x3'036b    0x18  Code  Lc  am_util_stdio.o [1]
skipjack_desc              0x5'a00c    0x68  Data  Gb  skipjack.o [5]
skipjack_done              0x4'48f1     0x2  Code  Gb  skipjack.o [5]
skipjack_ecb_decrypt       0x4'46d5   0x114  Code  Gb  skipjack.o [5]
skipjack_ecb_encrypt       0x4'45b5   0x120  Code  Gb  skipjack.o [5]
skipjack_keysize           0x4'48f3    0x1a  Code  Gb  skipjack.o [5]
skipjack_setup             0x4'4479    0x2c  Code  Gb  skipjack.o [5]
skipjack_test              0x4'47e9    0xee  Code  Gb  skipjack.o [5]
skipjack_test::tests       0x5'c7c4    0x1c  Data  Lc  skipjack.o [5]
snprintf                   0x3'6c65    0x44  Code  Gb  snprintf.o [2]
sober128_add_entropy       0x5'2da5    0xbc  Code  Gb  sober128.o [5]
sober128_desc              0x5'c2c4    0x28  Data  Gb  sober128.o [5]
sober128_done              0x5'2efb    0x14  Code  Gb  sober128.o [5]
sober128_export            0x5'2f0f    0x30  Code  Gb  sober128.o [5]
sober128_import            0x5'2f3f    0x3c  Code  Gb  sober128.o [5]
sober128_read              0x5'2ebd    0x3e  Code  Gb  sober128.o [5]
sober128_ready             0x5'2e61    0x5c  Code  Gb  sober128.o [5]
sober128_start             0x5'2d7d    0x28  Code  Gb  sober128.o [5]
sober128_stream_crypt      0x2'ae7b   0x6b8  Code  Gb  sober128_stream.o [5]
sober128_stream_done       0x2'b575    0x18  Code  Gb  sober128_stream.o [5]
sober128_stream_keystream
                           0x2'b541    0x34  Code  Gb  sober128_stream.o [5]
sober128_stream_setiv      0x2'ae19    0x62  Code  Gb  sober128_stream.o [5]
sober128_stream_setup      0x2'ad81    0x98  Code  Gb  sober128_stream.o [5]
sober128_test              0x5'2f7b   0x1c4  Code  Gb  sober128.o [5]
sprng_add_entropy          0x5'8a07     0x6  Code  Gb  sprng.o [5]
sprng_desc                 0x5'c2ec    0x28  Data  Gb  sprng.o [5]
sprng_done                 0x5'8a27     0x6  Code  Gb  sprng.o [5]
sprng_export               0x5'8a2d     0xa  Code  Gb  sprng.o [5]
sprng_import               0x5'8a37     0x6  Code  Gb  sprng.o [5]
sprng_read                 0x5'8a13    0x14  Code  Gb  sprng.o [5]
sprng_ready                0x5'8a0d     0x6  Code  Gb  sprng.o [5]
sprng_start                0x5'8a01     0x6  Code  Gb  sprng.o [5]
sprng_test                 0x5'8a3d    0x74  Code  Gb  sprng.o [5]
sqr                        0x4'5017    0x14  Code  Lc  ltm_desc.o [5]
sqrmod                     0x4'511f    0x18  Code  Lc  ltm_desc.o [5]
sqrtmod_prime              0x4'502b    0x18  Code  Lc  ltm_desc.o [5]
sscanf                     0x3'4151    0x28  Code  Gb  sscanf.o [2]
ssh_encode_sequence_multi
                           0x3'55b1   0x2e8  Code  Gb  ssh_encode_sequence_multi.o [5]
stab                       0x5'8878    0xc8  Data  Lc  rc5.o [5]
stab                       0x5'8ab4    0xb0  Data  Lc  rc6.o [5]
strchr                     0x3'6d15          Code  Gb  strchr.o [8]
strcmp                     0x3'433d          Code  Gb  strcmp.o [8]
strlen                     0x2'3d49          Code  Gb  strlen.o [8]
strtol                     0x3'6deb     0x4  Code  Gb  iar_Stolx.o [2]
strtoul                    0x3'6f35     0x2  Code  Gb  iar_Stoulx.o [2]
sub                        0x4'4fb7    0x18  Code  Lc  ltm_desc.o [5]
subi                       0x4'4fcf    0x18  Code  Lc  ltm_desc.o [5]
submod                     0x4'50e7    0x1c  Code  Lc  ltm_desc.o [5]
swap                       0x3'86e5    0x56  Code  Lc  qsort.o [2]
sys_alloc                  0x2'4341   0x164  Code  Lc  dlmalloc.o [2]
sys_trim                   0x2'44a5    0x64  Code  Lc  dlmalloc.o [2]
tag_constructed_map        0x5'c684    0x20  Data  Lc  der_decode_asn1_identifier.o [5]
tag_constructed_map_sz     0x5'd4a4     0x4  Data  Lc  der_decode_asn1_identifier.o [5]
tau                        0x5'd488     0x4  Data  Lc  chacha_setup.o [5]
teletex_table              0x5'38e8   0x3b0  Data  Lc  der_length_teletex_string.o [5]
tmalloc_large              0x2'49bb   0x386  Code  Lc  dlmalloc.o [2]
tmalloc_small              0x2'4d41   0x200  Code  Lc  dlmalloc.o [2]
totrot                     0x5'cfa4    0x10  Data  Lc  des.o [5]
toupper                    0x4'60d7     0xc  Code  Gb  toupper.o [2]
try_realloc_chunk          0x2'5739   0x318  Code  Lc  dlmalloc.o [2]
twoexpt                    0x4'4f0b    0x14  Code  Lc  ltm_desc.o [5]
twofish_desc               0x5'a074    0x68  Data  Gb  twofish.o [5]
twofish_done               0x2'c379     0x2  Code  Gb  twofish.o [5]
twofish_ecb_decrypt        0x2'bfb9   0x2b0  Code  Gb  twofish.o [5]
twofish_ecb_encrypt        0x2'bd23   0x296  Code  Gb  twofish.o [5]
twofish_keysize            0x2'c37b    0x30  Code  Gb  twofish.o [5]
twofish_setup              0x2'b85d   0x4c6  Code  Gb  twofish.o [5]
twofish_test               0x2'c269    0xf6  Code  Gb  twofish.o [5]
twofish_test::tests        0x5'86e4    0xcc  Data  Lc  twofish.o [5]
uint64_to_hexstr           0x3'02f3    0x78  Code  Lc  am_util_stdio.o [1]
uint64_to_str              0x3'0275    0x7e  Code  Lc  am_util_stdio.o [1]
unsigned_read              0x4'4f6f    0x18  Code  Lc  ltm_desc.o [5]
unsigned_size              0x4'4f4f     0xc  Code  Lc  ltm_desc.o [5]
unsigned_write             0x4'4f5b    0x14  Code  Lc  ltm_desc.o [5]
write_radix                0x4'4f37    0x18  Code  Lc  ltm_desc.o [5]
x509_decode_subject_public_key_info
                           0x3'4499   0x266  Code  Gb  x509_decode_subject_public_key_info.o [5]
xtea_desc                  0x5'a0dc    0x68  Data  Gb  xtea.o [5]
xtea_done                  0x5'3511     0x2  Code  Gb  xtea.o [5]
xtea_ecb_decrypt           0x5'330d   0x10e  Code  Gb  xtea.o [5]
xtea_ecb_encrypt           0x5'3203   0x10a  Code  Gb  xtea.o [5]
xtea_keysize               0x5'3513    0x14  Code  Gb  xtea.o [5]
xtea_setup                 0x5'3159    0xaa  Code  Gb  xtea.o [5]
xtea_test                  0x5'341b    0xe6  Code  Gb  xtea.o [5]
xtea_test::tests           0x5'6e98   0x140  Data  Lc  xtea.o [5]
yarrow_add_entropy         0x5'496f    0x8c  Code  Gb  yarrow.o [5]
yarrow_desc                0x5'c314    0x28  Data  Gb  yarrow.o [5]
yarrow_done                0x5'4ab9    0x16  Code  Gb  yarrow.o [5]
yarrow_export              0x5'4acf    0x30  Code  Gb  yarrow.o [5]
yarrow_import              0x5'4aff    0x3c  Code  Gb  yarrow.o [5]
yarrow_prng             0x1000'4710  0x1ef0  Data  Gb  hxsc_crypto.o [1]
yarrow_read                0x5'4a6f    0x4a  Code  Gb  yarrow.o [5]
yarrow_ready               0x5'49fb    0x74  Code  Gb  yarrow.o [5]
yarrow_start               0x5'4925    0x4a  Code  Gb  yarrow.o [5]
yarrow_test                0x5'4b3b    0x6c  Code  Gb  yarrow.o [5]
zeromem                    0x2'13dd    0x14  Code  Gb  zeromem.o [5]


[1] = D:\ESSEK_WORKSPACES\evb_emb\harborxsmarcard\apollo3evb\iar\bin
[2] = dl7M_tln.a
[3] = libam_bsp.a
[4] = libam_hal.a
[5] = libtomcrypt.a
[6] = libtommath.a
[7] = m7M_tls.a
[8] = rt7M_tl.a
[9] = shb_l.a

  198 072 bytes of readonly  code memory
  136 479 bytes of readonly  data memory
   36 081 bytes of readwrite data memory

Errors: none
Warnings: none
